:100000000000042059070000191A0000F107000041
:10001000F9070000F9070000F907000000000000E0
:10002000000000000000000000000000F9070000D0
:10003000F907000000000000F9070000310C000083
:10004000F9070000613300006F3300007D330000CA
:10005000F9070000F9070000F9070000F9070000A0
:10006000F9070000F9070000F9070000F907000090
:10007000F9070000F9070000F9070000653E0000DD
:10008000733E0000813E00008F3E00009D3E000058
:10009000AB3E0000B93E0000C73E0000D53E000068
:1000A000E33E0000F9070000F9070000F90700002F
:1000B000F9070000F9070000F9070000F907000040
:1000C000F9070000F9070000F9070000F907000030
:1000D0006D2A0000792A0000852A0000912A00007C
:1000E0009D2A0000A92A0000B52A0000F907000097
:1000F000F9070000F9070000F9070000F907000000
:10010000F9070000F9070000F9070000F9070000EF
:10011000F9070000F9070000F9070000F9070000DF
:10012000F9070000F9070000F9070000F9070000CF
:10013000312700003F2700004D270000194900002B
:10014000274900003549000043490000514900009B
:100150005F490000F9070000F9070000F9070000F7
:10016000F9070000F907000095180000A318000027
:10017000B1180000F9070000F9070000F9070000B6
:10018000F9070000F9070000F9070000F90700006F
:10019000F9070000F9070000F9070000F90700005F
:1001A000F9070000F9070000F9070000F90700004F
:1001B000F9070000F9070000F9070000F90700003F
:1001C000F9070000F9070000F9070000F90700002F
:1001D0005B270000F9070000F9070000F90700009D
:1001E000F9070000F9070000F9070000F90700000F
:1001F0006D4900007B4900008949000097490000D3
:10020000A5490000B3490000C1490000F9070000FA
:10021000F9070000F9070000F9070000F9070000DE
:10022000F9070000F9070000F9070000F9070000CE
:10023000F9070000000000000000000000000000BE
:1002400000000000000000000000000000000000AE
:10025000000000000000000000000000000000009E
:10026000000000000000000000000000000000008E
:10027000000000000000000000000000000000007E
:10028000000000000000000000000000000000006E
:10029000000000000000000000000000000000005E
:1002A000000000000000000000000000000000004E
:1002B000000000000000000000000000000000003E
:1002C000000000000000000000000000000000002E
:1002D000000000000000000000000000000000001E
:1002E000000000000000000000000000000000000E
:1002F00000000000000000000000000000000000FE
:1003000000000000000000000000000000000000ED
:1003100000000000000000000000000000000000DD
:1003200000000000000000000000000000000000CD
:1003300000000000000000000000000000000000BD
:1003400000000000000000000000000000000000AD
:10035000000000000000000000000000000000009D
:10036000000000000000000000000000000000008D
:10037000000000000000000000000000000000007D
:10038000000000000000000000000000000000006D
:10039000000000000000000000000000000000005D
:1003A000000000000000000000000000000000004D
:1003B000000000000000000000000000000000003D
:1003C0000348044B834202D0034B03B118477047E4
:1003D0006C0000206C000020000000000548064B67
:1003E0001B1AD90F01EBA301491002D0034B03B133
:1003F000184770476C0000206C00002000000000CF
:1004000010B5064C237843B9FFF7DAFF044B13B15C
:100410000448AFF300800123237010BD6C0000205E
:1004200000000000645F000008B5054B1BB10549E2
:100430000548AFF30080BDE80840FFF7CFBF00BF1D
:100440000000000070000020645F0000A3F5803A07
:10045000704700BF174B002B08BF134B9D46FFF79B
:10046000F5FF00218B460F461348144A121A00F07C
:100470003DF80E4B002B00D098470D4B002B00D0C1
:1004800098470020002104000D000D48002802D0EC
:100490000C48AFF3008000F031F82000290000F094
:1004A0000BFB00F011F800BF000008000000000086
:1004B00000000000000004206C000020E80900207B
:1004C000000000000000000008B5064B044613B110
:1004D0000021AFF30080044B1B6803B1984720460E
:1004E00005F02AFC00000000C00100200244034681
:1004F000934200D1704703F8011BF9E770B50D4B2B
:100500000D4D5B1B9C100026A64209D105F016FC80
:100510000A4D0B4B5B1B9C100026A64205D170BDFB
:1005200055F8043B98470136EEE755F8043B9847E9
:100530000136F2E76400002064000020640000201F
:10054000680000207047704770B50F4E0C46316848
:10055000054611B900F0A6F830602146284600F0A3
:10056000A1F8431C03D14FF0FF34204670BDC41CDA
:1005700024F00304A042F8D0211A284600F092F893
:100580000130F2D1EFE700BFC80100202DE9F843A8
:10059000CD1C25F0030508350C2D38BF0C25002D8A
:1005A000064601DBA94204D90C2333600020BDE8D4
:1005B000F883DFF8D48000F069F8D8F800301C46E2
:1005C00044BB29463046FFF7BFFF431C044658D1C1
:1005D000D8F800402746002F43D1002C4BD0236889
:1005E0003946304604EB030900F05CF8814542D1FE
:1005F00021686D1A29463046FFF7A6FF01303AD030
:1006000023682B442360D8F800305A6862BBC8F8CE
:1006100000700FE02268521B20D40B2A17D96119F1
:10062000A342256018BF5960636808BFC8F800106E
:1006300062514B60304600F02FF804F10B00231D8F
:1006400020F00700C21A1CBF1B1AA350AFE7626854
:10065000A3420CBFC8F800205A60EBE72346646849
:10066000AEE73C467F68B6E71A465B68A342FBD11B
:1006700000235360DEE70C233360304600F00CF8B3
:1006800094E70560D6E700BFCC0100200148FFF7E2
:1006900059BF00BFC40100200148FFF754BF00BF8D
:1006A000C401002038B5064D0023044608462B60DF
:1006B00005F034FB431C02D12B6803B1236038BD25
:1006C000D001002038B50546002941D051F8043C3E
:1006D0000C1F002BB8BFE418FFF7D8FF1D4A1368A2
:1006E00033B9636014602846BDE83840FFF7D4BFD3
:1006F000A34208D9206821188B4201BF19685B68A2
:1007000009182160EDE71A465B680BB1A342FAD9DC
:1007100011685018A0420BD1206801445018834240
:100720001160E0D118685B68536008441060DAE734
:1007300002D90C232B60D6E7206821188B4204BF16
:1007400019685B68636004BF091821605460CAE7D8
:1007500038BD00BFCC01002080B584B000AF00F0F0
:1007600073F81F4BFB6019E00023BB600EE0FB68D1
:100770001A68BB689B001A44FB685968BB689B00F9
:100780000B4412681A60BB680133BB60FB689B684E
:10079000BA689A42EBD3FB680C33FB60FB68114AE2
:1007A0009342E1D3104B7B6014E000233B6009E0EF
:1007B0007B681A683B689B00134400221A603B6800
:1007C00001333B607B685B683A689A42F0D37B6890
:1007D00008337B607B68054A9342E6D3FFF73AFE15
:1007E000705F0000885F0000885F0000885F000085
:1007F00080B400AF00BFFDE780B400AF00BFFDE7ED
:1008000080B400AF0E4B4AF25A52C3F8F0200C4BA2
:1008100000229A604FF080435722C3F8F0204FF037
:1008200080437522C3F8F020064B15221A60054B51
:1008300051221A6000BFBD465DF8047B704700BFBF
:1008400000020040F00F014180B500AF72B600BF5A
:10085000044B054A9A60FFF7D3FF62B600BF00BFA2
:1008600080BD00BF00ED00E00000000080B485B056
:1008700000AF78600B4B1A687B6802FB03F3BB6028
:100880000023FB6003E000BFFB680133FB60FA68F4
:10089000BB689A42F7D300BF00BF1437BD465DF86E
:1008A000047B70475C00002080B400AF4FF08043B1
:1008B0009B6A4FF0804243F4FE4393624FF08043C3
:1008C0001B6B4FF0804243F4FE4313636D4B1522C4
:1008D0001A606C4B51221A606B4B00221A616A4BF2
:1008E00000221A63684B00229A63674B0022DA6386
:1008F000654B00225A61644B644A1A60624B644A39
:100900005A60614B6FF040729A605F4B0022DA6070
:10091000604B00221A615F4B00221A635D4B3F223D
:100920009A635C4B0022DA635A4B00225A61594B9E
:100930004FF088521A60574B07225A60554B4FF4BC
:100940007C329A60534B0022DA60534B00221A61CA
:10095000514B00221A63504B00229A634E4B0022E7
:10096000DA634D4B00225A614B4B4C4A1A604A4B9A
:100970004B4A5A60484B4FF0FF329A60464B494A07
:10098000DA60494B00221A61474B00221A63464B3A
:1009900000229A63444B0022DA63434B00225A61DF
:1009A000414B4FF077321A603F4B4FF077325A602D
:1009B0003D4B4FF0FF329A603B4B0022DA603B4BDD
:1009C00000221A61394B00221A63384B00229A63C5
:1009D000364B0022DA63354B00225A61334B4FF01D
:1009E00077321A60314B4FF077325A602F4B4FF00D
:1009F000FF329A602D4B0022DA602D4B00221A61E3
:100A00002B4B00221A632A4B00229A63284B0022A8
:100A1000DA63274B00225A61254B4FF077321A6078
:100A2000234B4FF077325A60214B4FF0FF329A60E0
:100A30001F4B0022DA601F4B00221A611D4B00225F
:100A40001A631C4B00229A631A4B0022DA63194B7B
:100A500000225A61174B4FF077321A60154B4FF056
:100A600077325A60134B4FF0FF329A60114B0022DD
:100A7000DA60044B00221A6000BFBD465DF8047BBB
:100A8000704700BFF00F0141000001417770777798
:100A90001177707700010141000201413333731770
:100AA000013377778A82A2000003014100040141EB
:100AB000000501410006014180B500AFFFF7F4FEDB
:100AC00000F00EF800F096FB00F020FB00F0F8F9C3
:100AD00000F090FA00F0D4F80023184680BD000022
:100AE00080B586B000AF0123FB750123BB750223DF
:100AF0003B7400237B740023BB74264A3B1D07CA4A
:100B000003C31A700121022002F06CFA01210120B6
:100B100002F068FA0121002002F064FA01210320AA
:100B200002F060FA07F11003184602F0BBF93A1D13
:100B3000FB7D1146184602F0A9FABB7D002B06D0BA
:100B400004233B7400237B740023BB7405E004235F
:100B50003B7400237B740023BB7407F11003184619
:100B600002F0A0F9002002F06DFB00220F2102200C
:100B700002F03CFB0021022002F034FA00210020A8
:100B800002F030FA0021032002F02CFA00BF1837DF
:100B9000BD4680BD545D000080B483B000AF034605
:100BA0003960FB7197F90730002B0ADB3B68DAB23A
:100BB0000C4997F907301201D2B20B4483F8002395
:100BC0000AE03B68DAB20849FB7903F00F03043B03
:100BD0001201D2B20B441A7600BF0C37BD465DF845
:100BE000047B704700E100E000ED00E080B582B0DA
:100BF00000AF78607B68013BB3F1807F01D30123B4
:100C00000FE00A4A7B68013B53600F214FF0FF3031
:100C1000FFF7C2FF054B00229A60044B07221A60BF
:100C2000002318460837BD4680BD00BF10E000E035
:100C300080B400AF064B1B68002B04D0044B1B682C
:100C4000013B034A136000BFBD465DF8047B70475B
:100C5000D401002080B483B000AF7860074A7B687D
:100C6000136000BF054B1B68002BFBD100BF00BF0A
:100C70000C37BD465DF8047B704700BFD4010020EF
:100C800080B582B000AF394B1B68394AA2FB032301
:100C90009B091846FFF7AAFF01220621012001F057
:100CA00031FE01220721012001F02CFE03F0AAFEF3
:100CB00004F046F900237B602AE004F00DFA0346B5
:100CC000002B1FD17A6813465B001344294AB2F9FE
:100CD0000010294A22F813107A6813465B00134467
:100CE0000133264AB2F90010234A22F813107A6819
:100CF00013465B0013440233214AB2F900101E4A26
:100D000022F813100820FFF7A5FF7B6801337B60F2
:100D10007B687F2BD1DD00233B601FE03A681346E0
:100D20005B001344144A32F9133019463A681346EB
:100D30005B0013440133104A32F9133018463A6805
:100D400013465B00134402330B4A32F91330024658
:100D50000C4803F0FFFE3B6801333B603B687F2B90
:100D6000DCDD094803F0F6FEA4E700BF50000020D8
:100D7000D34D6210DA090020D8010020DC090020E0
:100D8000DE090020605D00006C5D000080B588B069
:100D900002AF0023FB7507F1100300221A601A71DD
:100DA0000223FB743B1D00221A605A601A72012351
:100DB0003B7101233B73022000F0B8FB0346FB7537
:100DC00097F91730002B24D107F1100319460220A0
:100DD00000F0E6FB0346FB7597F91730002B1AD19C
:100DE0003B1D1946022000F005FC0346FB7597F9F0
:100DF0001730002B11D1032300930023094A00214F
:100E0000022000F061FC0346FB7597F91730002BB8
:100E100004E000BF02E000BF00E000BF1837BD469D
:100E200080BD00BFE70E000080B588B002AF002390
:100E3000FB7507F1100300221A601A710223FB747C
:100E40003B1D00221A605A601A7201233B73002076
:100E500000F06CFB0346FB7597F91730002B24D18B
:100E600007F110031946002000F09AFB0346FB75BA
:100E700097F91730002B1AD13B1D1946002000F0BE
:100E8000B9FB0346FB7597F91730002B11D10323EB
:100E900000930023094A0021002000F015FC0346BE
:100EA000FB7597F91730002B04E000BF02E000BF8C
:100EB00000E000BF1837BD4680BD00BFD10E000066
:100EC00080B500AFFFF762FFFFF7AEFF00BF80BD48
:100ED00080B483B000AF7860396000BF0C37BD4686
:100EE0005DF8047B704780B483B000AF78603960F0
:100EF00000BF0C37BD465DF8047B704780B588B0F5
:100F000002AF0023FB753B1D00221A605A609A60F5
:100F1000DA60174BFB6001233B7432237B82002095
:100F200000F01EFF0346FB7597F91730002B18D110
:100F30003B1D1946002000F045FF0346FB7597F95D
:100F40001730002B0FD1032300930023094A0021FF
:100F5000002000F0AFFF0346FB7597F91730002B18
:100F600002E000BF00E000BF1837BD4680BD00BFF3
:100F7000A08601000510000080B588B002AF0023F4
:100F8000FB753B1D00221A605A609A60DA60174BAD
:100F9000FB6001233B7432237B82022000F0E0FEE1
:100FA0000346FB7597F91730002B18D13B1D1946E6
:100FB000022000F007FF0346FB7597F91730002B5E
:100FC0000FD1032300930023094A0021022000F0DF
:100FD00071FF0346FB7597F91730002B02E000BF45
:100FE00000E000BF1837BD4680BD00BFA0860100ED
:100FF0001B10000080B500AFFFF780FFFFF7BCFFBC
:1010000000BF80BD80B483B000AF7860396000BF9E
:101010000C37BD465DF8047B704780B483B000AFE9
:101020007860396000BF0C37BD465DF8047B7047BF
:1010300080B588B002AF0023FB75324A07F1100378
:1010400092E803001860043319803B1D00221A60E7
:101050005A601A810123FB7101233B7201237B81BA
:101060004FF47A73BB81002002F034FC0346FB7519
:1010700097F91730002B38D107F1100319460020DB
:1010800002F05EFC0346FB7597F91730002B2ED15A
:101090003B1D1946002002F0A1FC0346FB7597F9A1
:1010A0001730002B25D1002300930023164A01217D
:1010B000002002F05BFD0346FB7597F91730002B0B
:1010C00019D10021002002F0D7FD0346FB7597F9E6
:1010D0001730002B11D10021002002F0EEFD034655
:1010E000FB7597F91730002B08E000BF06E000BF42
:1010F00004E000BF02E000BF00E000BF1837BD46BB
:1011000080BD00BF705D00001911000080B500AF08
:10111000FFF78EFF00BF80BD80B582B000AF786062
:1011200039607B6803F00103002B0AD0074B1B6872
:101130000133064A1360054B1B681946044803F047
:1011400009FD00BF0837BD4680BD00BFD8040020A0
:10115000785D000080B586B002AF0023FB73224AA1
:1011600007F10C031268114619800233120C1A7031
:101170001E4A3B1D92E8030083E80300022003F0AF
:10118000FBF80346FB7397F90F30002B24D107F1CE
:101190000C031946022003F043F90346FB7397F949
:1011A0000F30002B1AD13B1D1946022003F051F9D4
:1011B0000346FB7397F90F30002B11D100230093E6
:1011C00000230B4A0121022003F0D8F90346FB73E8
:1011D00097F90F30002B04E000BF02E000BF00E0F1
:1011E00000BF1037BD4680BD9C5D0000A05D0000C3
:1011F0000112000080B500AFFFF7ACFF00BF80BD5B
:1012000080B483B000AF7860396000BF0C37BD4652
:101210005DF8047B7047000080B483B000AF0346E4
:10122000FB7197F90730002B0BDBFB7903F01F02F2
:10123000074997F907305B09012000FA02F241F8EB
:10124000232000BF0C37BD465DF8047B704700BF0C
:1012500000E100E080B483B000AF0346FB7197F972
:101260000730002B12DBFB7903F01F020A4997F9C4
:1012700007305B09012000FA02F2203341F82320F5
:10128000BFF34F8F00BFBFF36F8F00BF00BF0C379E
:10129000BD465DF8047B704700E100E080B483B098
:1012A00000AF0346FB7197F90730002B0CDBFB798D
:1012B00003F01F02074997F907305B09012000FA84
:1012C00002F2603341F8232000BF0C37BD465DF8C1
:1012D000047B704700E100E080B483B000AF0346B8
:1012E0003960FB7197F90730002B0ADB3B68DAB2F3
:1012F0000C4997F907301201D2B20B4483F800234E
:101300000AE03B68DAB20849FB7903F00F03043BBB
:101310001201D2B20B441A7600BF0C37BD465DF8FD
:10132000047B704700E100E000ED00E080B483B092
:1013300000AF0346FB71FB7903F5820303F590735D
:101340001B0218460C37BD465DF8047B704780B41D
:1013500085B000AF03463960FB714FF08043FB60FE
:10136000FB79022B02D96FF0010322E0FB68DA6AF5
:10137000FB791433012101FA03F3DB431A40FB79B3
:101380001433396801FA03F31A43FB68DA62FB6825
:101390005A6BFB791433012101FA03F3DB431A4042
:1013A000FB791433396801FA03F31A43FB685A6373
:1013B000002318461437BD465DF8047B704780B49F
:1013C00085B000AF0346FB71EF23FB73FB79022B63
:1013D0000CD0022B0DDC002B02D0012B03D008E037
:1013E0004A23FB7306E04B23FB7303E04C23FB73A0
:1013F00000E000BF97F90F3018461437BD465DF87E
:10140000047B704780B584B000AF786039600023FA
:10141000FB600FE00B4AFB681B0113440F331B7882
:10142000002B04D0FB68DBB2184600F0DDF9FB6846
:101430000133FB60FB68022BECDD00BF00BF1037FF
:10144000BD4680BDDC04002080B582B000AF0346FD
:10145000FB71FB791846FFF769FF0346184608370A
:10146000BD4680BD80B582B000AF03460A46FB7121
:101470001346BB71BA79FB7911461846FFF767FF2F
:10148000034618460837BD4680BD000080B586B0CB
:1014900000AF0346FB710023FB75234B3B61002328
:1014A000FB60FB791846FFF7CFFFB860BB681B688D
:1014B00043F08002BB681A60BB689B6823F4FE435C
:1014C00043F40072BB689A60BB681B6823F030036A
:1014D00043F01002BB681A60BB681B6843F4E0620B
:1014E000BB681A60BB681B6A43F00102BB681A62E2
:1014F00008E03B69013B3B613B69002B02D1FC23C7
:10150000FB7505E0BB685B6A03F00403002BF0D0B9
:10151000BB685B6AFB60BB68FA685A6297F9173070
:1015200018461837BD4680BDA086010080B584B03E
:1015300000AF0346FB710023FB73FB79022B02D93A
:101540006FF0010325E0FB7901211846FFF78AFFC0
:101550000346FB7397F90F30002B02D097F90F3039
:1015600017E0FB791B010D4A134410220021184695
:10157000FEF7BCFFFB791846FFF788FF0346FB73B5
:1015800097F90F30002B02D097F90F3001E097F94F
:101590000F3018461037BD4680BD00BFDC04002068
:1015A00080B584B000AF03463960FB710023FB7344
:1015B000FB79022B02D96FF0010317E0FB79184683
:1015C000FFF742FFB8603B681B78012B02D1FB2379
:1015D000FB7309E0BB689B6823F4FE423B68DB7841
:1015E0001B021A43BB689A6097F90F3018461037F0
:1015F000BD4680BD80B586B000AF03463960FB7143
:101600000023FB75FB79022B02D96FF0010355E033
:10161000FB791846FFF718FF3861FB791B01294A4F
:101620001344FB603B689B78012B02D16FF00403ED
:1016300044E03B691B6823F030023B681B78012BB8
:1016400004D93B681B78013B1B0100E000231A43CF
:101650003B691A603B691B6823F4E0623B68DB78F6
:101660001B021A433B691A603B691B6823F007029F
:101670003B685B78002B07D03B685B78012B01D17E
:10168000012302E00B2300E000231A433B691A60A8
:101690003B691B6823F040023B685B799B011A435E
:1016A0003B691A603B691B6A43F002023B691A629C
:1016B0003B681A78FB681A7397F917301846183781
:1016C000BD4680BDDC04002080B588B000AFBA60A4
:1016D0007B600346FB730B46BB730023FB77FB7BEE
:1016E000022B02D96FF0010376E0BB7B022B02D103
:1016F0006FF0040370E0FB7B1B01394A1344BB61AC
:10170000FB7B1846FFF75BFE0346FB75BB7B022B9A
:1017100002DC002B04DC3FE0033B012B3CD824E03F
:10172000BB69DB7B002B09D097F91700002300224F
:10173000002100F0C5F8BB690022DA73BB69BA6802
:101740005A60BB697A689A6097F917301846FFF7B4
:10175000A5FD97F91730B96A1846FFF7BDFD97F94F
:1017600017301846FFF758FD31E097F917000123AD
:101770007A681C4900F0A4F80346FB7797F91F30FC
:10178000002B05D1BB69BA685A60BB697A689A6058
:10179000BB690122DA731AE097F9170000230022CF
:1017A000002100F08DF8BB690022DA7397F9173039
:1017B0001846FFF773FD97F917301846FFF74AFDF3
:1017C000BB6900229A60BB6900225A6000BFBB69F6
:1017D000BA7B1A7097F91F3018462037BD4680BD76
:1017E000DC0400200514000080B586B000AF03467D
:1017F000FB7100237B6100233B61FB791846FFF7F7
:1018000023FEF860FB791B01214A1344BB60FB688F
:101810005B6A3B61FB683A695A623B6903F001030A
:10182000002B03D07B6943F001037B613B6903F02C
:101830000403002B03D07B6943F002037B613B6907
:1018400003F00803002B03D07B6943F004037B61A2
:10185000FB7908333A6922FA03F303F00103002B02
:1018600003D07B6943F008037B61BB685B68002B96
:1018700009D07B69002B06D0BB685B68BA689268A8
:1018800011467869984700BF1837BD4680BD00BF34
:10189000DC04002080B500AF0020FFF7A5FF00BFEB
:1018A00080BD80B500AF0120FFF79EFF00BF80BD67
:1018B00080B500AF0220FFF797FF00BF80BD00009A
:1018C00080B489B000AFB9607A601A460346FB73F2
:1018D0001346BB730023FB774FF08043BB611B4B68
:1018E0007B61BB695B6D23F40042BB7BDB031A4366
:1018F000BB695A657B69BA7B1A707B691B78002BC0
:101900000FD0BB695B6D23F47F02FB7B1B041A4382
:10191000BB695A657B69BA685A607B697A689A6064
:101920000BE0BB695B6D23F47F02BB695A657B6981
:1019300000225A607B6900229A6097F91F3018468E
:101940002437BD465DF8047B704700BF600500206A
:1019500090B585B000AF4FF08043BB6000237B6043
:101960000023FB60BB689B6D7B607B6843F00C428F
:10197000BB689A650023FB6034E02649FA68134689
:101980005B0013449B000B441B78002B27D07A6824
:10199000FB6822FA03F303F00103002B1FD01D495B
:1019A000FA6813465B0013449B000B4404331B6826
:1019B000002B14D01749FA6813465B0013449B00B0
:1019C0000B4404331C681349FA6813465B00134444
:1019D0009B000B4408331B6819460120A047FB6895
:1019E0000133FB60FB68072BC7DD0A4B93F85430CB
:1019F000002B0BD07B6803F40043002B06D0054B73
:101A00009B6D044AD26D11460120984700BF1437E0
:101A1000BD4690BD0C05002080B500AFFFF798FFD4
:101A200000BF80BD80B483B000AF0346FB7197F95F
:101A30000730002B0BDBFB7903F01F02074997F9F6
:101A400007305B09012000FA02F241F8232000BFB1
:101A50000C37BD465DF8047B704700BF00E100E035
:101A600080B483B000AF0346FB7197F90730002BB9
:101A700012DBFB7903F01F020A4997F907305B0973
:101A8000012000FA02F2203341F82320BFF34F8FE8
:101A900000BFBFF36F8F00BF00BF0C37BD465DF8BE
:101AA000047B704700E100E080B483B000AF0346E0
:101AB000FB7197F90730002B0CDBFB7903F01F0259
:101AC000074997F907305B09012000FA02F26033F9
:101AD00041F8232000BF0C37BD465DF8047B7047FA
:101AE00000E100E080B483B000AF03463960FB71D1
:101AF00097F90730002B0ADB3B68DAB20C4997F9FB
:101B000007301201D2B20B4483F800230AE03B688D
:101B1000DAB20849FB7903F00F03043B1201D2B299
:101B20000B441A7600BF0C37BD465DF8047B704746
:101B300000E100E000ED00E080B485B000AF0346B6
:101B40003960FB714FF08043FB60FB79032B02D9B6
:101B50006FF0010322E0FB68DA6AFB7904330121AC
:101B600001FA03F3DB431A40FB790433396801FAC5
:101B700003F31A43FB68DA62FB685A6BFB790433A0
:101B8000012101FA03F3DB431A40FB79043339687E
:101B900001FA03F31A43FB685A630023184614370B
:101BA000BD465DF8047B704780B483B000AF034648
:101BB000FB71FB7903F58003A0331B0218460C3739
:101BC000BD465DF8047B704780B485B000AF034626
:101BD000FB71EF23FB73FB79032B17D801A252F89B
:101BE00023F000BFF51B0000FB1B0000011C0000E0
:101BF000071C00003C23FB7309E03D23FB7306E058
:101C00003E23FB7303E06423FB7300E000BF97F9FE
:101C10000F3018461437BD465DF8047B704700BF8F
:101C200080B483B000AF03463960FB7100BF0C374E
:101C3000BD465DF8047B704780B584B000AF786026
:101C400039600023FB6011E00C4AFB682C2101FB8A
:101C500003F3134429331B78002B04D0FB68DBB259
:101C6000184600F04DFBFB680133FB60FB68032B5B
:101C7000EADD00BF00BF1037BD4680BD6C05002007
:101C800080B582B000AF0346FB71FB791846FFF7C1
:101C90008BFF034618460837BD4680BD80B582B02D
:101CA00000AF03460A46FB711346BB71BA79FB7954
:101CB00011461846FFF740FF034618460837BD4651
:101CC00080BD000080B485B000AF78600023BB60A9
:101CD0000D4BFB6008E0FB68002B02D14FF0FF3397
:101CE0000CE0FB68013BFB607B685B6903F08003F1
:101CF000002BF0D07B689B68BB60BB68184614372C
:101D0000BD465DF8047B704780841E0080B485B0BA
:101D100000AF7860114BFB607B685B6943F00202A7
:101D20007B685A6105E0FB68002B09D0FB68013B2A
:101D3000FB607B685B6903F08003002BF3D000E05D
:101D400000BF7B685B6923F002027B685A6100BFB9
:101D50001437BD465DF8047B704700BF80841E00C9
:101D600080B584B000AF0346FB710023FB73FB79A1
:101D7000032B02D96FF001031EE0FB790121184605
:101D8000FFF78CFF0346FB7397F90F30002B02D04F
:101D900097F90F3010E0FB792C2202FB03F3084A7D
:101DA00013442C2200211846FEF7A0FBFB791846AD
:101DB000FFF766FF97F90F3018461037BD4680BD14
:101DC0006C05002080B586B000AF03463960FB711A
:101DD000FB79032B02D96FF0010363E0FB7918460E
:101DE000FFF74EFF3861FB792C2202FB03F32F4AE9
:101DF0001344FB603B681A78FB681A733B69DB6825
:101E000023F0FE023B685B785B001A433B69DA60B3
:101E10003B69DB6823F001033A6892781A433B6917
:101E2000DA603B689B68002B0DD0214B1A683B6839
:101E30009B68B2FBF3F35B089BB2023BFB82FB8A1D
:101E4000013BBB8205E03B681B89FB823B685B89E9
:101E5000BB823B699B691B0C1B04FA8A1A433B69D2
:101E60009A613B69DB691B0C1B04BA8A1A433B6904
:101E7000DA613B681B7B002B0BD03B691B6A23F4A8
:101E8000FF4323F07F033A68D2891A433B691A6201
:101E900007E03B691B6A23F4FF4323F07F033A69A1
:101EA0001362002318461837BD4680BD6C0500201C
:101EB0005400002080B588B000AFBA607B60034654
:101EC000FB730B46BB730023FB77FB7B032B02D911
:101ED0006FF0010375E0FB7B2C2202FB03F33B4A0E
:101EE0001344BB61FB7B1846FFF76EFE0346FB7590
:101EF000BB7B012B05D0002B42DD033B012B3FD8E0
:101F000026E0BB6993F82930002B0AD097F9170017
:101F1000002300220021FFF7D3FCBB69002283F8D5
:101F20002920BB69BA685A60BB697A689A6097F9D8
:101F300017301846FFF7B8FD97F91730B96A1846F9
:101F4000FFF7D0FD97F917301846FFF76BFD33E028
:101F500097F9170001237A681D49FFF7B1FC034682
:101F6000FB7797F91F30002B05D1BB69BA685A601F
:101F7000BB697A689A60BB69012283F829201BE05B
:101F800097F91700002300220021FFF799FCBB6995
:101F9000002283F8292097F917301846FFF784FDAF
:101FA00097F917301846FFF75BFDBB6900229A606E
:101FB000BB6900225A6000BFBB69BA7B1A7097F9EF
:101FC0001F3018462037BD4680BD00BF6C0500207D
:101FD000391C000090B484B000AFF860B9607A603A
:101FE0000C4B1B680D2B10D87B681A06BB681B02B4
:101FF00042EA0301FB68DAB2064B1B68581C054C29
:1020000020600A43044941F8232000BF1037BD4631
:1020100090BC70475C0600201C06002080B58CB088
:1020200000AFBA607B600346FB730B46BB730023B3
:1020300087F826300023FB620023BB62002387F869
:102040002730A14B00221A60FB7B032B02D96FF0D3
:10205000010351E1FB7B1846FFF712FE3862FB7B60
:102060002C2202FB03F3994A1344FB61FB695B7B5F
:10207000002B03D1FB699B7B002B02D06FF0020386
:102080003AE1FB6901225A733B6A5B6923F0100253
:102090003B6A5A613B6A5B6943F008023B6A5A61DA
:1020A0003B6A79229A603B6A1B6823F0FF02BB7B84
:1020B0005B001A433B6A1A603B6A5B6943F00102AA
:1020C0003B6A5A61386AFFF7FDFDB861BB69B3F13D
:1020D000FF3F0FD197F827301A460021FF20FFF766
:1020E00079FF386AFFF712FEFB6900225A736FF01E
:1020F000080301E197F82730002B7ED197F82730AD
:102100001A460021B869FFF765FFBB69472B35D038
:10211000BB69872B65D1FA6A7B689A4210D23B6A09
:102120001B6823F0FF02FB6A591CF962B9680B4473
:102130001B781A433B6A1A603B6A79229A60DAE09C
:10214000012387F827303B6A5B6943F008023B6A4A
:102150005A613B6A1B6823F0FF02BB7B5B001343A1
:1021600043F001023B6A1A603B6A5B6943F001027B
:102170003B6A5A613B6A79229A60BCE0FA6A7B68E2
:102180009A4210D23B6A1B6823F0FF02FB6A591C7B
:10219000F962B9680B441B781A433B6A1A603B6AC0
:1021A00079229A60A7E0012387F827303B6A5B69B0
:1021B00043F008023B6A5A613B6A1B6823F0FF0246
:1021C000BB7B5B00134343F001023B6A1A603B6A2E
:1021D0005B6943F001023B6A5A613B6A79229A606B
:1021E00089E0386AFFF792FD3B6A79229A60FB69C1
:1021F00000225A736FF008037EE0BB69852B09D07B
:10220000BB69852B64D8BB69442B4AD0BB69452B7D
:102210000BD05DE097F827301A460021B869FFF728
:10222000D9FE3B6A79229A6065E00023FB75BA6AA1
:10223000FB6B9A4211D397F827301A46FE21B869F2
:10224000FFF7C8FE386AFFF761FD3B6A79229A60A2
:10225000FB6900225A7300234EE03B6A1B68FB7542
:10226000BA6AFB6B9A4206D2BB6A5A1CBA62BA6B54
:102270001344FA7D1A70FB7D97F827201946B86938
:10228000FFF7A8FEBA6AFB6B9A4206D13B6A5B690C
:1022900023F008023B6A5A612DE03B6A79229A607A
:1022A00029E097F827301A460021B869FFF792FE17
:1022B000386AFFF72BFD3B6A79229A60FB6900229E
:1022C0005A73002318E000BF5C0600206C05002054
:1022D00097F827301A460021B869FFF77BFE386A65
:1022E000FFF714FD3B6A79229A60FB6900225A735A
:1022F0006FF0080300E0E5E618463037BD4680BDC4
:1023000090B589B000AF0346FB710023BB6000238A
:10231000FB770023BB77FB79032B00F20482FB7968
:102320001846FFF7ADFCB861FB792C2202FB03F3E2
:10233000AF4A13447B617B699B68002B09D07B69A2
:102340009B683B613B695A1CFB7911461846FFF7B5
:1023500067FCBB699B68FB60FB68472B00F29E80B3
:10236000152B2DD292E1853B122B00F28F8101A219
:1023700052F823F091250000732600001D2500006F
:102380008D2600008D2600008D2600008D26000081
:102390008D2600008D2600008D2600008D26000071
:1023A0008D2600008D2600008D2600008D26000061
:1023B0008D260000D92500008D260000572500003D
:1023C000153B322B00F2628101A252F823F000BFCC
:1023D000C32500008D260000E32400008D260000A8
:1023E0008D2600008D2600008D2600008D26000021
:1023F0008D2600008D2600008D260000F5250000AA
:102400008D260000AB2400008D2600008D260000E4
:102410008D2600008D2600008D2600008D260000F0
:102420008D2600008D2600008D2600008D260000E0
:102430008D2600008D2600008D2600008D260000D0
:102440008D2600008D2600008D2600008D260000C0
:102450008D2600008D2600008D2600008D260000B0
:102460008D2600008D2600008D2600008D260000A0
:102470008D2600008D2600008D2600008D26000090
:102480008D2600008D2600008D2600002D260000E0
:102490002D2600005725000057250000972B00F23D
:1024A000F580852BBFF45FAFF0E07B691A6A7B692A
:1024B0009B699A42C0F0ED807B695B7B002B00F04A
:1024C000E8800023FB77BB6843F00103BB607B69B6
:1024D00000221A627B6900229A617B6900225A738A
:1024E000D7E00123FB777B691B7B002B40F0D38077
:1024F0007B691A6A7B699B699A42C0F0CC80002391
:10250000FB77BB695B6943F00202BB695A61BB6937
:102510005B6923F00802BB695A61BCE00123FB77C9
:102520007B691B7B002B40F0B8807B691A6A7B6952
:102530009B699A42C0F0B1800023FB77BB695B695D
:1025400043F00202BB695A61BB695B6923F0080270
:10255000BB695A61A1E00123FB777B691B7B002BE0
:1025600040F09D807B691A6A7B699B699A42C0F042
:1025700096800023FB77BB695B6943F00202BB696D
:102580005A61BB695B6923F00802BB695A6186E046
:102590007B691B7B002B40F084800023BB777B6929
:1025A000012283F828207B695B6A5A1C7B69DB69FE
:1025B0009A4276D1BB695B6923F00802BB695A6114
:1025C0006FE07B691B7B012B6DD10023BB777B699F
:1025D000012283F8282066E07B691B7B012B64D1F4
:1025E0000123BB777B69012283F828205DE000BFCF
:1025F0006C0500207B695A6A7B69DB699A4256D375
:102600007B6993F82830002B51D00023BB77BB683F
:1026100043F00203BB607B6900225A627B6900229F
:102620009A737B69002283F8282040E07B691B7B3A
:10263000002B1BD17B695B6A5A1C7B69DB69013B00
:102640009A4206D1BB695B6923F00802BB695A61F3
:102650000CE07B695A6A7B69DB69013B9A4205D1D0
:10266000BB695B6943F00202BB695A610123BB7716
:1026700020E00023FB777B691B7B002B19D1BB6912
:102680005B6943F00102BB695A6112E00023FB77EA
:1026900010E000BF0EE000BF0CE000BF0AE000BF8A
:1026A00008E000BF06E000BF04E000BF02E000BF9A
:1026B00000E000BFFB7F002B0FD0BB691B6823F03D
:1026C000FF027B6919697B691B6A5C1C786904627B
:1026D0000B441B781A43BB691A60BB7F002B10D0D8
:1026E0007B6993F82830002B0BD0BB691C687B6991
:1026F0005A697B695B6A581C796948621344E2B283
:102700001A707B695B68002B09D0BB68002B06D070
:102710007B695B68B8687A69926811469847BB69BB
:1027200079229A6000E000BF2437BD4690BD00BF0B
:1027300080B500AF0020FFF7E3FD00BF80BD80B58E
:1027400000AF0120FFF7DCFD00BF80BD80B500AF0A
:102750000220FFF7D5FD00BF80BD80B500AF03208C
:10276000FFF7CEFD00BF80BD80B582B000AF084B43
:102770007B607B685B6A3B603B68002B04D03A68F7
:102780007968002000F036F900BF0837BD4680BDEB
:102790000000014180B582B000AF084B7B607B68D0
:1027A0005B6A3B603B68002B04D03A687968012083
:1027B00000F020F900BF0837BD4680BD000101418F
:1027C00080B582B000AF084B7B607B685B6A3B6082
:1027D0003B68002B04D03A687968022000F00AF9BF
:1027E00000BF0837BD4680BD0002014180B582B000
:1027F00000AF084B7B607B685B6A3B603B68002BEB
:1028000004D03A687968032000F0F4F800BF083774
:10281000BD4680BD0003014180B582B000AF084BCA
:102820007B607B685B6A3B603B68002B04D03A6846
:102830007968042000F0DEF800BF0837BD4680BD8F
:102840000004014180B582B000AF084B7B607B681B
:102850005B6A3B603B68002B04D03A6879680520CE
:1028600000F0C8F800BF0837BD4680BD0005014133
:1028700080B582B000AF084B7B607B685B6A3B60D1
:102880003B68002B04D03A687968062000F0B2F863
:1028900000BF0837BD4680BD0006014180B483B04B
:1028A00000AF78607B6803F5820303F580731B0239
:1028B00018460C37BD465DF8047B704780B485B080
:1028C00000AF0346FB710023FB73FB79062B02D993
:1028D000FA23FB7300E000BF97F90F301846143756
:1028E000BD465DF8047B704780B582B000AF0346FB
:1028F000FB71FB791846FFF7E1FF034618460837DE
:10290000BD4680BD80B586B000AF0346FB710B4667
:10291000BB7113467B710023FB75FB791846FFF7EB
:10292000E3FF0346FB7597F91730002B02D06FF0D9
:10293000010359E0FB791846FFF7B0FF38612C4BD3
:10294000FB60FB681B6823F0FF0343F01502FB6884
:102950001A60FB681B6823F0FF0343F05102FB6819
:102960001A60BB79072B1AD83B691B68BA799200A9
:102970000F2101FA02F2D24313407A79042A05D8D2
:102980007A7942F00802D2B2114600E00F21BA79FA
:10299000920001FA02F21A433B691A601BE03B699C
:1029A0005B68BA79083A92000F2101FA02F2D24329
:1029B00013407A79042A05D87A7942F00802D2B213
:1029C000114600E00F21BA79083A920001FA02F2AA
:1029D0001A433B695A60064BBB60BB681B6823F017
:1029E000FF02BB681A60002318461837BD4680BD39
:1029F000F00F014180B588B000AF0346B9607A603E
:102A0000FB73FB7B1B01174A1344FB61164BBB6135
:102A1000BB691B6823F0FF0343F01502BB691A6012
:102A2000BB691B6823F0FF0343F05102BB691A60C6
:102A3000BB687A685A620C4B7B617B691B6823F028
:102A4000FF027B691A60FB695B68002B06D0FB699B
:102A50005B68FA69926811467868984700BF20372A
:102A6000BD4680BD60060020F00F014180B500AF7B
:102A7000FFF77AFE00BF80BD80B500AFFFF78AFE8A
:102A800000BF80BD80B500AFFFF79AFE00BF80BDDC
:102A900080B500AFFFF7AAFE00BF80BD80B500AFD4
:102AA000FFF7BAFE00BF80BD80B500AFFFF7CAFEDA
:102AB00000BF80BD80B500AFFFF7DAFE00BF80BD6C
:102AC00080B483B000AF4FF082437B607B681B68AB
:102AD00023F00F0343F005027B681A6000BF0C3738
:102AE000BD465DF8047B704780B485B000AF786068
:102AF0004FF08243BB600023FB737B68184A93420C
:102B000002D80023FB731DE07B68164A934202D86B
:102B10000123FB7316E07B68134A934202D8022319
:102B2000FB730FE07B68114A934202D80323FB73C7
:102B300008E07B680E4A934202D80423FB7301E04D
:102B40000523FB73BB681B6823F00F02FB7B1A4352
:102B5000BB681A6000BF1437BD465DF8047B704740
:102B6000408AF7018014EF0300E1F505406BED07A3
:102B700080F5E40980B586B000AF0346FB710B46D3
:102B8000BB7113467B710023FB754FF08043FB60E4
:102B900000233B610023FB72FB79042B50D801A278
:102BA00052F823F0B92B0000D92B0000F92B0000BC
:102BB000192C00003B2C0000FB681B6C43F0020248
:102BC000FB681A647B79334A42FA03F31A46324BA4
:102BD0001A6006233B6136E0FB681B6C43F0080279
:102BE000FB681A647B792D4A42FA03F31A462A4B92
:102BF0001A6002233B6126E0FB681B6C43F0200255
:102C0000FB681A647B79264A42FA03F31A46224B80
:102C10001A6000233B6116E0FB681B6C43F08002E6
:102C2000FB681A647B794FF4004242FA03F31A46B8
:102C3000194B1A6001233B6105E007233B6102E069
:102C4000FA23FB7500BFFB685B6C23F070627B7935
:102C50001B061A43FB685A64FB685B6C1B0CDBB2F7
:102C600003F00703FB720C4B1A68FB7A22FA03F39A
:102C70000C4A1360FFF724FFFB685B6C23F007022C
:102C80003B691A43FB685A6497F91730184618379E
:102C9000BD4680BD00093D00500000200024F40026
:102CA00020A107005400002080B485B000AF034687
:102CB0000A46FB711346BB710023FB734FF0804340
:102CC000BB600023BB73BB790F2B02D96FF00503E8
:102CD00041E0BB681B6D23F00F02BB7903F00F03CB
:102CE0001A43BB681A65FB79072B25D801A252F855
:102CF00023F000BF2D2D0000272D00001B2D00000C
:102D0000212D0000332D0000392D0000392D000049
:102D1000152D00000423BB7311E00023BB730EE0EC
:102D20000123BB730BE00523BB7308E00623BB73D1
:102D300005E00723BB7302E0FA23FB7300BFBB6807
:102D40001B6D23F0E002BB7B5B01DBB21A43BB6867
:102D50001A6597F90F3018461437BD465DF8047BA5
:102D6000704700BF80B487B000AF03463A60FB7184
:102D70000B46BB710023FB754FF08043FB600023C3
:102D8000BB6000233B61FB685B6C23F44072BB7942
:102D90001B021A43FB685A64BB79032B16D801A2A5
:102DA00052F823F0B52D0000BB2D0000C12D00000E
:102DB000C72D000001233B610BE002233B6108E0CB
:102DC00004233B6105E008233B6102E0FA23FB7525
:102DD00000BF97F91730002B02D097F917302BE07E
:102DE0000123BB60FB79002B11D0012B1FD1FB68A5
:102DF0001B6C23F00202BB685B001A43FB681A6479
:102E0000104A3B69B2FBF3F23B681A6012E0FB68C0
:102E10001B6C23F00802BB68DB001A43FB681A64D2
:102E2000094A3B69B2FBF3F23B681A6002E0FA23FD
:102E3000FB7500BF97F9173018461C37BD465DF883
:102E4000047B704700093D000024F40080B487B083
:102E500000AF7860114B1B68114AA2FB03239B0C47
:102E60007B617B69002B01D101237B617B687A69DF
:102E700002FB03F33B610023FB6003E000BFFB6840
:102E80000133FB60FB683A699A42F7D800BF00BF84
:102E90001C37BD465DF8047B704700BF5000002022
:102EA00083DE1B432DE9B04F84B000AF7860002370
:102EB000BB734FF08043BB600023FB737B681B78C0
:102EC000042B04D1404B1B68404A13600EE07B6822
:102ED0001B78002B01D10123FB73BB685B6C23F4CF
:102EE0008052FB7B1B031A43BB685A647B681878CB
:102EF0007B6859787B689B781A46FFF73BFE034650
:102F0000BB7397F90E30002B02D097F90E3055E0C5
:102F10002E4B1B6800229846914642464B464FF086
:102F200000004FF00001590141EAD2615001024610
:102F30000B46B2EB080463EB09054FF000024FF0BB
:102F40000003AB0043EA9473A20014461D4614EB41
:102F5000080A45EB090B4FF000024FF000034FEA5F
:102F6000CB0343EA5A734FEACA0292469B46504645
:102F70005946174A4FF0000302F062F902460B4629
:102F8000144BA3FB02239B08134A13600F4B1B68CF
:102F9000124AA2FB0323DB0C114A1360104B1B687F
:102FA000002B02D10E4B01221A60C820FDF75EFCF7
:102FB000064B1B681846FFF797FD0023184610378D
:102FC000BD46BDE8B08F00BFD006002050000020F5
:102FD00040420F00ABAAAAAA58000020819F5E16AB
:102FE0005C00002080B487B000AF03460A46FB7146
:102FF0001346BB710023FB754FF080433B610023F8
:10300000FB60BB79FB60FB79032B33D801A252F83C
:1030100023F000BF25300000393000004D300000A3
:10302000613000003B691B6C23F00202FB685B000F
:103030001A433B691A6420E03B691B6C23F00802C9
:10304000FB68DB001A433B691A6416E03B691B6CA2
:1030500023F02002FB685B011A433B691A640CE011
:103060003B691B6C23F08002FB68DB011A433B6960
:103070001A6402E0FA23FB7500BF97F9173018466F
:103080001C37BD465DF8047B704700BF80B588B033
:1030900000AF03463960FB710023FB774FF080439C
:1030A0003B610023BB610023BB600023FB60002366
:1030B000FB75FB7983F00103DBB2002B06D03B6983
:1030C0001B6E23F480023B691A6684E03B691B6E29
:1030D00043F480023B691A660220FFF7B7FE3B68A3
:1030E0001B78012B01D10123FB753B695B6C23F439
:1030F0008052FB7D1B031A433B695A643B68187876
:103100003B685B7807F108021946FFF72BFE034680
:10311000FB7797F91F30002B02D097F91F305CE046
:103120003B689B7803F00F0343F480023B68DB7835
:103130001B021A433B685B791B0403F4702313439F
:1031400043F40013BB613B689B799B0603F040622C
:10315000BB691A433B68DB791B0603F040731343DA
:10316000BB613B69BA691A664FF4FA70FFF76EFEED
:103170001C4B1B684FF4FA7202FB03F3BB6108E0BF
:10318000BB69002B02D1FC23FB7706E0BB69013B46
:10319000BB613B691B6E002BF2DA97F91F30002BE5
:1031A00002D097F91F3018E03B685B7901333A6829
:1031B0009278013202FB03F3FB60BA68FB68B2FB52
:1031C000F3F3BB613B68DB7801331A46BB6902FB52
:1031D00003F3054A136097F91F3018462037BD46A0
:1031E00080BD00BF5C000020D006002080B584B008
:1031F00000AF0346FB710B46BB7113467B714FF06A
:103200008043FB600023FB72BA79FB7911461846B4
:10321000FFF74AFD0346FB7297F90B30002B02D0F3
:1032200097F90B3009E0FB681B6D23F010027B79E6
:103230001B011A43FB681A65002318461037BD4668
:1032400080BD000080B485B000AF0346FB714FF035
:103250008043FB60FB79042B02D96FF0050310E07B
:10326000FB685B6C23F4E022FB791B041A43FB68C8
:103270005A64074B1A68FB7922FA03F3054A136074
:10328000002318461437BD465DF8047B704700BF25
:10329000500000205400002080B586B000AF0346E7
:1032A000FB714FF080433B610023FB6000237B6197
:1032B000FB79022B24D0022B31DC002B02D0012B16
:1032C0000FD02CE03B699B6C03F02003002B28D02F
:1032D00001237B613B699B6C43F020023B699A644C
:1032E0001FE03B699B6C03F00203002B1BD0022301
:1032F0007B613B699B6C43F002023B699A6412E07C
:103300003B699B6C03F40073002B0ED004237B619C
:103310003B699B6C43F400723B699A6405E000BF13
:1033200004E000BF02E000BF00E000BFFA791346EE
:103330005B0013449B00094A1344FB60FB681B6855
:10334000002B06D0FB681B68FA6852681146786942
:10335000984700BF1837BD4680BD00BFD406002087
:1033600080B500AF0020FFF797FF00BF80BD80B59C
:1033700000AF0120FFF790FF00BF80BD80B500AF18
:103380000220FFF789FF00BF80BD000080B483B03A
:1033900000AF0346FB7197F90730002B0BDBFB797D
:1033A00003F01F02074997F907305B09012000FA73
:1033B00002F241F8232000BF0C37BD465DF8047BC4
:1033C000704700BF00E100E080B483B000AF034667
:1033D000FB7197F90730002B12DBFB7903F01F021A
:1033E0000A4997F907305B09012000FA02F22033FD
:1033F00041F82320BFF34F8F00BFBFF36F8F00BF93
:1034000000BF0C37BD465DF8047B704700E100E06B
:1034100080B483B000AF0346FB7197F90730002BEF
:103420000CDBFB7903F01F02074997F907305B09B2
:10343000012000FA02F2603341F8232000BF0C376C
:10344000BD465DF8047B704700E100E080B483B0C6
:1034500000AF03463960FB7197F90730002B0ADB98
:103460003B68DAB20C4997F907301201D2B20B442B
:1034700083F800230AE03B68DAB20849FB7903F0DD
:103480000F03043B1201D2B20B441A7600BF0C3773
:10349000BD465DF8047B704700E100E000ED00E010
:1034A00080B485B000AF03463960FB714FF08043B4
:1034B000FB600023FB72FB79092B02D96FF001033B
:1034C00023E0FB689A6AFB791033012101FA03F3C8
:1034D000DB431A40FB791033396801FA03F31A43CE
:1034E000FB689A62FB681A6BFB791033012101FAC1
:1034F00003F3DB431A40FB791033396801FA03F315
:103500001A43FB681A6397F90B3018461437BD4607
:103510005DF8047B704780B483B000AF78607B684F
:1035200003F18073C0339B0118460C37BD465DF82C
:10353000047B704780B485B000AF0346FB71EF2376
:10354000FB73FB79092B35D801A252F823F000BF99
:10355000793500007F350000853500008B3500008F
:1035600091350000973500009D350000A33500001F
:10357000A9350000AF3500000F23FB731BE01023BB
:10358000FB7318E01123FB7315E01223FB7312E0A9
:103590001323FB730FE01423FB730CE01523FB7361
:1035A00009E01623FB7306E01723FB7303E01823DF
:1035B000FB7300E000BF97F90F3018461437BD4683
:1035C0005DF8047B704700BF80B483B000AF034652
:1035D000FB71FB79032B13D801A252F823F000BF33
:1035E000F1350000FD350000F9350000F53500002B
:1035F000002306E0012304E0022302E0032300E0AD
:10360000042318460C37BD465DF8047B704700BFA5
:1036100080B483B000AF0346FB71FB7918460C37CA
:10362000BD465DF8047B704780B485B000AF78601C
:103630000023BB600023FB607B689B699B0803F051
:103640000103BB60BB68002B03D0FB6843F002039F
:10365000FB607B689B695B0803F00103BB60BB6890
:10366000002B03D0FB6843F00403FB607B689B697D
:1036700003F00103BB60BB68002B03D0FB6843F081
:103680000803FB60FB6818461437BD465DF8047BF1
:103690007047000080B487B000AF396011461A4609
:1036A0000346FB710B46BB7113467B710023FB7510
:1036B0004FF080433B610023FB603B681B6823F0B5
:1036C000700343F040023B681A60BB79052B21D898
:1036D00001A252F823F000BFF1360000F7360000D7
:1036E0000F370000FD3600000337000009370000E7
:1036F0000023BB7511E00123BB750EE00523BB75EC
:103700000BE00623BB7508E00723BB7505E0042327
:10371000BB7502E0FA23FB7500BF97F91730002B49
:1037200002D097F917303BE097F91730002B36D1CC
:103730003B699033FB60FB6808331B68FA79042A05
:1037400002D96FF0E06201E06FF4E0621340B97DEE
:10375000FA79042A01D9182200E0082201FA02F2BB
:103760001146FA6808320B431360FB6808331B6884
:10377000FA79042A02D96FF47F0201E06FF0FF02A8
:1037800013407979FA79042A01D9102200E0002245
:1037900001FA02F21146FA6808320B431360002363
:1037A00018461C37BD465DF8047B704780B483B073
:1037B00000AF03463960FB711346BB713B681B6861
:1037C00043F070023B681A60002318460C37BD4670
:1037D0005DF8047B7047000080B485B000AF0346FD
:1037E0003960FB711346BB710023FB730023BB736D
:1037F000BB79032B16D801A252F823F00D38000034
:1038000013380000193800001F3800000023BB7374
:103810000BE00123BB7308E00223BB7305E0032325
:10382000BB7302E0FA23FB7300BF3B681B6823F005
:103830007002BB7B1B011A433B681A6097F90F307B
:1038400018461437BD465DF8047B704780B584B0D8
:1038500000AF786039600023FB600FE00B4AFB6823
:103860001B0113440E331B78002B04D0FB68DBB222
:10387000184600F043FAFB680133FB60FB68092B34
:10388000ECDD00BF00BF1037BD4680BDF80600204C
:1038900080B582B000AF0346FB71FB791846FFF795
:1038A0003AFE034618460837BD4680BD80B582B053
:1038B00000AF03460A46FB711346BB71BA79FB7928
:1038C00011461846FFF7ECFD034618460837BD467B
:1038D00080BD000080B584B000AF0346FB710023BB
:1038E000FB73FB79092B02D96FF0010322E0FB790E
:1038F00001211846FFF7DAFF0346FB7397F90F30F3
:10390000002B02D097F90F3014E0FB791846FFF72F
:10391000BFFFB860FB791B01084A13441022002145
:103920001846FCF7E3FDBB6800221A60BB68002262
:103930005A60002318461037BD4680BDF8060020A7
:1039400080B584B000AF03463960FB710023FB7380
:10395000FB79092B02D96FF001033AE03B689B88A1
:10396000B3F5806F02D36FF0050332E0FB791846A0
:10397000FFF78EFFB8603B681B78022B17D0022B35
:103980001DDC002B02D0012B09D018E03B685A78CF
:103990003B689B78F879B968FFF77CFE12E03B68DA
:1039A0005A78FB79B9681846FFF700FF0AE03B68D0
:1039B0005A78FB79B9681846FFF70EFF02E0FA2340
:1039C000FB7300BF3B689B881A46BB689A6097F9F7
:1039D0000F3018461037BD4680BD000080B586B058
:1039E00000AF03463960FB710023FB75FB79092B9F
:1039F00002D96FF00103B3E03B681B78032B02D9B7
:103A00006FF00503ACE0FB791846FFF741FF386122
:103A1000FB791B01544A1344FB603B681B78184632
:103A2000FFF7D2FD0346FB723B691B6823F00302DC
:103A3000FB7A1A433B691A603B685B781846FFF7CC
:103A4000E7FD0346BB723B691B6823F08002BB7A2B
:103A5000DB011A433B691A603B68DB78002B49D0D5
:103A60003B681B78032B42D801A252F823F000BF19
:103A7000813A0000C13A0000813A00009B3A000000
:103A80003B69DB6943F004023B69DA613B69DB694E
:103A900043F002023B69DA612CE03B69DB6943F0E9
:103AA00004023B69DA613B69DB6943F002023B696E
:103AB000DA613B691B6843F400623B691A6019E0F4
:103AC0003B69DB6943F004023B69DA613B69DB690E
:103AD00043F002023B69DA613B691B6823F00C0288
:103AE0003B689B789B001A433B691A6002E0FA230B
:103AF000FB7500BF97F91730002B2FD13B681A7860
:103B0000FB681A733B681B79002B05D03B69DB69A6
:103B100043F001023B69DA613B681B78032B0DD14E
:103B20003B68DB881A463B69DA603B681B891A46AA
:103B30003B691A61FB6806225A7309E03B68DB881F
:103B40001A463B69DA603B681B891A463B691A6171
:103B50003B695B6843F002023B695A6097F9173092
:103B600018461837BD4680BDF806002080B588B0DD
:103B700000AFBA607B600346FB730B46BB73002348
:103B8000FB77FB7B092B02D96FF001036CE0FB7B19
:103B90001B01374A1344BB61FB7B1846FFF7CAFC85
:103BA0000346FB75BB7B012B02D0022B25D03BE0EB
:103BB000BB699B7B002B09D097F9170000230022DB
:103BC0000021FDF77DFEBB6900229A73BB69BA68CC
:103BD0005A60BB697A689A6097F917301846FFF700
:103BE00017FC97F91730B96A1846FFF72FFC97F9B9
:103BF00017301846FFF7CAFB31E097F91700012389
:103C00007A681C49FDF75CFE0346FB7797F91F3085
:103C1000002B05D1BB69BA685A60BB697A689A60A3
:103C2000BB6901229A731AE097F91700002300225A
:103C30000021FDF745FEBB6900229A7397F9173002
:103C40001846FFF7E5FB97F917301846FFF7BCFB5E
:103C5000BB6900229A60BB6900225A6000BFBB6941
:103C6000BA7B1A7097F91F3018462037BD4680BDC1
:103C7000F80600204D38000080B584B000AF034640
:103C80000A46FB711346BB71FB79092B02D96FF011
:103C900001030EE0FB791846FFF7FAFDF860FB68B8
:103CA0001B6823F40062BB79DB021A43FB681A60CD
:103CB000002318461037BD4680BD80B584B000AFE4
:103CC00003460A46FB711346BB71FB79092B02D9E7
:103CD0006FF001030EE0FB791846FFF7D9FDF8609D
:103CE000FB681B6823F48052BB791B031A43FB68F3
:103CF0001A60002318461037BD4680BD80B586B0D7
:103D000000AF0346FB7100237B610023FB74FB794A
:103D10001846FFF7BDFDF860FB791B01504A1344BC
:103D2000BB60F868FFF780FC0346FB74FB7C03F084
:103D30000203002B04D1FB7C03F00103002B27D0EE
:103D4000BB681B7B032B20D801A252F823F000BFD5
:103D5000613D0000813D0000613D00006B3D0000C1
:103D60007B6943F001037B6112E0BB685B7B03F07E
:103D70000203002B0BD07B6943F002037B6106E05A
:103D80007B6943F008037B6102E000BF00E000BFF5
:103D9000FB7C03F00403002B26D0BB681B7B032BAA
:103DA0001FD801A252F823F0B93D0000D93D000010
:103DB000B93D0000C33D00007B6943F001037B6116
:103DC00012E0BB685B7B03F00203002B0BD07B6926
:103DD00043F004037B6106E07B6943F010037B61E1
:103DE00002E000BF00E000BF7B69002B17D0FB683A
:103DF0009B6943F00402FB689A61FB689B6943F08E
:103E00000202FB689A61FB689B6943F00402FB684D
:103E10009A61FB689B6943F00202FB689A61FB7C34
:103E200003F00803002B09D07B6943F020037B617A
:103E3000FB689B6943F00102FB689A61BB685B68A1
:103E4000002B09D07B69002B06D0BB685B68BA6881
:103E5000926811467869984700BF1837BD4680BD03
:103E6000F806002080B500AF0020FFF747FF00BF35
:103E700080BD80B500AF0120FFF740FF00BF80BDCF
:103E800080B500AF0220FFF739FF00BF80BD80B5CD
:103E900000AF0320FFF732FF00BF80BD80B500AF49
:103EA0000420FFF72BFF00BF80BD80B500AF0520C9
:103EB000FFF724FF00BF80BD80B500AF0620FFF7ED
:103EC0001DFF00BF80BD80B500AF0720FFF716FFC4
:103ED00000BF80BD80B500AF0820FFF70FFF00BF17
:103EE00080BD80B500AF0920FFF708FF00BF80BD8F
:103EF00080B483B000AF0346FB7197F90730002B05
:103F00000BDBFB7903F01F02074997F907305B09C8
:103F1000012000FA02F241F8232000BF0C37BD4611
:103F20005DF8047B704700BF00E100E080B483B01F
:103F300000AF0346FB7197F90730002B12DBFB79CA
:103F400003F01F020A4997F907305B09012000FAC4
:103F500002F2203341F82320BFF34F8F00BFBFF39D
:103F60006F8F00BF00BF0C37BD465DF8047B704704
:103F700000E100E080B483B000AF0346FB7197F925
:103F80000730002B0CDBFB7903F01F02074997F980
:103F900007305B09012000FA02F2603341F8232068
:103FA00000BF0C37BD465DF8047B704700E100E0C0
:103FB00080B483B000AF03463960FB7197F90730D6
:103FC000002B0ADB3B68DAB20C4997F90730120183
:103FD000D2B20B4483F800230AE03B68DAB2084906
:103FE000FB7903F00F03043B1201D2B20B441A76A3
:103FF00000BF0C37BD465DF8047B704700E100E070
:1040000000ED00E080B485B000AF03463960FB717D
:104010004FF08043FB60FB790C2B02D96FF001035A
:104020005EE0FB79072B17D9FB68D3F82821FB79D1
:1040300003F007030833012101FA03F3DB431A40BD
:10404000FB7903F007030833396801FA03F31A43D5
:10405000FB68C3F8282110E0FB68DA6AFB790833B3
:10406000012101FA03F3DB431A40FB790833396875
:1040700001FA03F31A43FB68DA62FB79072B17D9BD
:10408000FB68D3F83021FB7903F0070308330121E3
:1040900001FA03F3DB431A40FB7903F0070308330B
:1040A000396801FA03F31A43FB68C3F8302110E0C2
:1040B000FB685A6BFB790833012101FA03F3DB43F8
:1040C0001A40FB790833396801FA03F31A43FB6895
:1040D0005A633B68002B02D1044B00221A60002374
:1040E00018461437BD465DF8047B704798070020DA
:1040F00080B483B000AF78607B6803F580038033C1
:104100001B0218460C37BD465DF8047B7047000063
:1041100080B485B000AF0346FB71EF23FB73FB79DE
:104120000C2B44D801A252F823F000BF61410000DB
:10413000674100006D4100007341000079410000BB
:104140007F410000854100008B410000914100004B
:10415000974100009D410000A3410000A9410000DB
:104160003F23FB7324E04023FB7321E04123FB73D7
:104170001EE04223FB731BE04323FB7318E0442340
:10418000FB7315E06C23FB7312E06D23FB730FE0F0
:104190006E23FB730CE06F23FB7309E07023FB734A
:1041A00006E07123FB7303E07223FB7300E000BFA2
:1041B00097F90F3018461437BD465DF8047B7047F9
:1041C00080B485B000AF0346FB710B46BB7113464C
:1041D0007B710023FB734FF08043BB60FB790C2B9A
:1041E00002D96FF0010364E0BB79052B3FD801A22F
:1041F00052F823F00D4200001D4200002F42000043
:104200003F4200004F4200005F4200007B792C4A91
:1042100092FBF3F31A462B4B1A602BE07B794FF499
:10422000004292FBF3F31A46264B1A6022E0264B1B
:104230001A687B79B2FBF3F3224A13601AE07B79A8
:10424000224A92FBF3F31A461E4B1A6012E07B7966
:104250001F4A92FBF3F31A461A4B1A600AE01A4BF4
:104260001A687B79B2FBF3F3164A136002E0FA2373
:10427000FB7300BFBB68D3F8A83023F0E062BB79C2
:10428000002B02D1BB791B0602E0BB7902331B066F
:104290001A43BB68C3F8A820BB68D3F8A83023F43E
:1042A0007F027B791B041A43BB68C3F8A82097F9E7
:1042B0000F3018461437BD465DF8047B704700BFC9
:1042C00020A1070098070020500000200024F400DF
:1042D00000093D0080B400AF034B1B681846BD4683
:1042E0005DF8047B704700BF9807002080B584B05C
:1042F00000AF786039600023FB6011E00C4AFB6876
:104300002C2101FB03F3134428331B78002B04D02A
:10431000FB68DBB2184600F03FFAFB680133FB6034
:10432000FB680C2BEADD00BF00BF1037BD4680BD27
:104330009C07002080B582B000AF0346FB71FB797B
:104340001846FFF7D5FE034618460837BD4680BD20
:1043500080B582B000AF03460A46FB711346BB71BD
:10436000BA79FB7911461846FFF74CFE034618460A
:104370000837BD4680BD000080B586B000AF03465B
:10438000FB710023FB75FB790C2B02D96FF0010345
:104390003FE0FB7901211846FFF7DAFF0346FB7582
:1043A00097F91730002B02D097F9173031E0FB79DD
:1043B0001846FFF7BFFF3861FB792C2202FB03F39D
:1043C000164A1344FB6003E03B691B68DBB2BB6029
:1043D0003B695B6903F00103002BF5D100BF3B692A
:1043E0005B6903F02003002BF9D03B6900225A607F
:1043F0003B690022DA603B6900221A613B695B6914
:104400003B699B682C220021F868FCF76FF897F94C
:10441000173018461837BD4680BD00BF9C070020E6
:1044200080B582B000AF03463960FB71FB790C2B7D
:1044300002D96FF0010308E03B6859783B689A782D
:10444000FB791846FFF7BCFE034618460837BD4601
:1044500080BD80B58AB000AF03463960FB71002390
:1044600087F82730FB790C2B02D96FF0010380E02D
:10447000FB791846FFF75EFF38623B681B79032B18
:104480000DD83B6ADB6823F003033A6812791A43BC
:104490003B6ADA603B685B79042B18D802E06FF066
:1044A000050366E03B685B79042B13D03B6ADB684D
:1044B00043F008023B6ADA603B6ADB6823F01002D3
:1044C0003B685B791B011A433B6ADA6002E06FF0DC
:1044D00005034EE03B689B79012B0ED83B6ADB68F5
:1044E00023F004023B689B799B001A433B6ADA6025
:1044F0003B68DB79002B06D002E06FF0050338E063
:10450000012387F827303B6A5B6823F0040297F8A1
:1045100027309B001A433B6A5A60FFF7DBFEF861C5
:104520003B681B681B01BB61FA69BB69B2FBF3F313
:104530007B617B69BA6902FB03F3FA69D31A3B61B9
:104540003B691A02BB69B2FBF3F3FB603B6A1B6A6F
:104550001B0C1B047A6992B21A433B6A1A623B6ACB
:104560005B6A23F0FF02FB68DBB21A433B6A5A62C4
:10457000002318462837BD4680BD000080B588B0AE
:1045800000AFBA607B600346FB730B46BB7300232E
:10459000FB77FB7B0C2B02D96FF0010375E0FB7BF3
:1045A0002C2202FB03F33B4A1344BB61FB7B1846FE
:1045B000FFF7AEFD0346FB75BB7B012B05D0002B3F
:1045C00042DD033B012B3FD826E0BB6993F828303E
:1045D000002B0AD097F91700002300220021FDF7D5
:1045E0006FF9BB69002283F82820BB69BA685A605A
:1045F000BB697A689A6097F917301846FFF7BAFCDA
:1046000097F91730B96A1846FFF7D2FC97F91730B7
:104610001846FFF76DFC33E097F9170001237A681D
:104620001D49FDF74DF90346FB7797F91F30002B25
:1046300005D1BB69BA685A60BB697A689A60BB6980
:10464000012283F828201BE097F91700002300229D
:104650000021FDF735F9BB69002283F8282097F97E
:1046600017301846FFF786FC97F917301846FFF702
:104670005DFCBB6900225A60BB6900229A6000BFE2
:10468000BB69BA7B1A7097F91F3018462037BD46B0
:1046900080BD00BF9C070020ED42000090B589B0AE
:1046A00000AFB9607A601A460346FB731346BB73CA
:1046B0000023FB77FB7B0C2B02D96FF0010365E035
:1046C000FB7B1846FFF736FEB861FB7B2C2202FB12
:1046D00003F3304A13447B617B691B7B012B02D1BE
:1046E0006FF0020352E07B6901221A737B69BA689A
:1046F0001A617B697A689A617B6900221A627B6918
:104700001B78002B1AD0BB7B002B21D016E0BB6995
:104710001B6823F0FF027B6919697B691B6A5C1CBB
:10472000786904620B441B781A43BB691A6000BFA6
:10473000BB695B6903F02003002BF9D07B699A69A0
:104740007B691B6A9A42E2D87B6900221A731BE0DC
:10475000BB695B6903F02003002B0FD0BB691B68AA
:1047600023F0FF027B6919697B691B6A5C1C78690D
:1047700004620B441B781A43BB691A60BB695B680F
:1047800043F00202BB695A6097F91F30184624377C
:10479000BD4690BD9C07002090B589B000AF034690
:1047A000FB710023FB60FB790C2B00F2AE80FB79E0
:1047B0001846FFF7BFFDF861FB792C2202FB03F3DB
:1047C000544A1344BB61FB699B683B613B6903F03E
:1047D0000603062B33D1FB6843F00403FB60FB693F
:1047E0005B6903F01003002B03D0FB6843F0080360
:1047F000FB60FB695B6903F00803002B03D0FB68D7
:1048000043F01003FB60FB695B6903F00403002BBA
:1048100003D0FB6843F02003FB60FB695B6903F096
:104820000203002B03D0FB6843F04003FB60FB69ED
:104830001B68DBB27B61FB6900225A6056E03B6972
:1048400003F00403002B1FD0FB691C68BB695A6985
:10485000BB695B6A581CB96948621344E2B21A70BA
:10486000BB69DA69BB695B6A9A423CD1FB695B68E8
:1048700023F00102FB695A60BB6900225A73FB688E
:1048800043F00203FB602EE03B6903F00203002BC0
:1048900004D13B6903F01003002B26D0BB699A6951
:1048A000BB691B6A9A4210D0FB691B6823F0FF02A8
:1048B000BB691969BB691B6A5C1CB86904620B445B
:1048C0001B781A43FB691A6010E0BB6900221A7357
:1048D000FB695B6823F00202FB695A60FB6843F0E6
:1048E0000103FB6002E000BF00E000BFBB695B6842
:1048F000002B0BD0FB68002B08D0BB695B68F86805
:10490000BA6992681146984700E000BF2437BD4657
:1049100090BD00BF9C07002080B500AF0020FFF7CE
:104920003BFF00BF80BD80B500AF0120FFF734FF23
:1049300000BF80BD80B500AF0220FFF72DFF00BF94
:1049400080BD80B500AF0320FFF726FF00BF80BD0C
:1049500080B500AF0420FFF71FFF00BF80BD80B50A
:1049600000AF0520FFF718FF00BF80BD80B500AF86
:104970000620FFF711FF00BF80BD80B500AF072004
:10498000FFF70AFF00BF80BD80B500AF0820FFF72A
:1049900003FF00BF80BD80B500AF0920FFF7FCFE1C
:1049A00000BF80BD80B500AF0A20FFF7F5FE00BF55
:1049B00080BD80B500AF0B20FFF7EEFE00BF80BDCD
:1049C00080B500AF0C20FFF7E7FE00BF80BD000000
:1049D00080B582B000AF0346FB71094B1B7883F0B2
:1049E0000103DBB2002B06D10020F91D01230122B7
:1049F000FFF754FE00E000BF0837BD4680BD00BF92
:104A0000D809002080B586B002AF384B1B78002B48
:104A100001D0012366E003220F210220FDF772FF7F
:104A20000346FB7397F90F30002B01D0002359E0A8
:104A300003220E210220FDF765FF0346FB7397F961
:104A40000F30002B01D000234CE000231846FFF765
:104A500093FC0346FB7397F90F30002B01D0002322
:104A600040E001233B7003237B700123BB700022D5
:104A70003B4619461046FFF7D3FC0346FB7397F9F4
:104A80000F30002B01D000232CE04FF4E1337B608A
:104A900003233B7204237B720023BB720023FB724F
:104AA00000223B1D19461046FFF7D3FC0346FB735B
:104AB00097F90F30002B01D0002313E000200023D2
:104AC0000093002300220021FFF758FD0346FB73EB
:104AD00097F90F30002B01D0002303E0034B012294
:104AE0001A70012318461037BD4680BDD809002032
:104AF00080B582B000AF78607B68002B14D00C4B7F
:104B00001B7883F00103DBB2002B0DD107E07B683B
:104B10001B781846FFF75CFF7B6801337B607B687E
:104B20001B78002BF3D100E000BF0837BD4680BDE5
:104B3000D809002080B582B000AF78607868FFF7B0
:104B4000D7FF0348FFF7D4FF00BF0837BD4680BD3D
:104B5000A85D00000FB480B5ACB000AFD7F8B83096
:104B6000002B37D0204B1B7883F00103DBB2002BE6
:104B700030D107F1BC037B6007F108007B68D7F8F0
:104B8000B820A02100F020FDC7F8AC00D7F8AC3069
:104B9000002B21DDD7F8AC309F2B02DD9F23C7F817
:104BA000AC300023C7F8A8300DE007F10802D7F8B1
:104BB000A83013441B781846FFF70AFFD7F8A8302F
:104BC0000133C7F8A830D7F8A820D7F8AC309A42FC
:104BD000EBDB02E000BF00E000BFB037BD46BDE840
:104BE000804004B0704700BFD809002080B586B06F
:104BF00002AF03463960FB711346BB80BB88012BB3
:104C000004D9FB7963F07F03DBB200E0FB79FB732F
:104C1000FA7BBB8800933B683321012000F0F4F855
:104C2000B860BB6818461037BD4680BD80B586B0F9
:104C300002AF03463960FB711346BB80BB88012B72
:104C400004D9FB7963F07F03DBB200E0FB79FB73EF
:104C5000FA7BBB8800933B683321012000F0FCF80D
:104C6000B860BB6818461037BD4680BD80B584B0BB
:104C700000AF0346FB7107F10803012219461F200C
:104C8000FFF7B4FFF860FB68002B0FD1FB7903F04E
:104C90000303DAB23B7A62F387133B7207F108032E
:104CA000012219461F20FFF7C1FFF860FB68184674
:104CB0001037BD4680BD80B584B000AF0346FB71A0
:104CC00007F10C03012219462020FFF78FFF03464E
:104CD000BB60BB68002B14D13B7B43F008033B73E4
:104CE000FB7903F00F03DAB23B7B62F307133B73EC
:104CF00007F10C03012219462020FFF797FF034616
:104D0000BB60BB6818461037BD4680BD80B584B017
:104D100000AF0346FB7107F1080301221946232067
:104D2000FFF764FFF860FB68002B0FD1FB7903F0FD
:104D30000303DAB23B7A62F305133B7207F108030F
:104D4000012219462320FFF771FFF860FB6818461F
:104D50001037BD4680BD80B584B000AF0346FB71FF
:104D600007F10803012219462320FFF73FFFF860EF
:104D7000FB68002B0FD1FB7903F00103DAB23B7A19
:104D800062F3C7133B7207F108030122194623207F
:104D9000FFF74CFFF860FB6818461037BD4680BD32
:104DA00080B584B000AF7860012279680F20FFF7EA
:104DB0001DFFF860FB6818461037BD4680BD80B502
:104DC00084B000AF0346FB7107F1080301221946C6
:104DD0002420FFF70BFFF860FB68002B0FD1FB7955
:104DE00003F00103DAB23B7A62F3C7133B7207F1B7
:104DF0000803012219462420FFF718FFF860FB681A
:104E000018461037BD4680BD80B586B002AF3B6006
:104E10000346FB710B46BB7113467B71BB795B0884
:104E2000FB730C4B18783B8B7A1DF97B01933B6825
:104E300000930123FDF7F2F80346BB7397F90E3098
:104E4000002B01D1002301E04FF0FF33184610374B
:104E5000BD4680BD6000002090B597B002AF3B60BA
:104E60000346FB710B46BB7113467B710023FB723B
:104E7000B7F860300133402B02D94FF0FF333DE0EB
:104E8000BB795B0887F84D307B793B730023A7F82B
:104E90004E3010E0B7F84E303A681A44B7F84E304A
:104EA0000133127850333B4403F8442CB7F84E30AA
:104EB0000133A7F84E30B7F84E20B7F860309A4269
:104EC000E8D3104B1878B7F8603001331C4607F16F
:104ED0000C0297F84D100123019307F10B03009387
:104EE0002346FDF79BF8034687F84C3097F94C3082
:104EF000002B01D1002301E04FF0FF331846543757
:104F0000BD4690BD6000002080B485B000AF7860E1
:104F10000CE00023FB6002E0FB680133FB60FB68F0
:104F2000B3F5FA5FF8D37B68013B7B607B68002BAD
:104F3000EFD100BF00BF1437BD465DF8047B70475A
:104F400080B584B000AF00233B720023FB600120DA
:104F5000FFF735FF3220FFF7D7FF0023FB7211E088
:104F600007F108031846FFF71BFFF860FB68002BEA
:104F700002D13B7A332B09D00A20FFF7C5FFFB7A19
:104F80000133FB72FB7A042BEAD900E000BFFB6817
:104F9000002B04D04948FFF7CDFD012389E03A7A80
:104FA000474B1A703B7A332B06D03B7A194645485B
:104FB000FFF7D0FD02237CE00020FFF77CFEF860C5
:104FC000FB68002B01D0032373E00520FFF79CFF53
:104FD0000020FFF7C0FEF860FB68002B01D004231F
:104FE00067E00020FFF792FEF860FB68002B01D01D
:104FF00005235EE00320FFF739FEF860FB68002B15
:1050000001D0062355E05F23FB710023BB71002311
:10501000BB7200237B7234E0FB1D01221946202065
:10502000FFF704FEF860FB68002B08D07B7A194676
:105030002548FFF78FFD0A20FFF766FF1EE00220DC
:10504000FFF762FFBB1D012219462020FFF7CEFDAE
:10505000F860FB68002B06D1BA79FB799A4202D13D
:105060000123BB7210E0FB791946BB791A467B7AA3
:105070001648FFF76FFD0A20FFF746FF7B7A0133E2
:105080007B727B7A042BC7D9BB7A002B04D11048E2
:10509000FFF750FD07230CE01420FFF735FF3B46D8
:1050A000062219462920FFF7A1FD0A4B01221A709A
:1050B000002318461037BD4680BD00BFAC5D000020
:1050C000D9090020D85D0000045E0000305E0000B9
:1050D000745E0000E009002080B58AB000AF07F1DF
:1050E000080300221A609A800023FB7100237B6270
:1050F00000233B620023FB610123FB754B4B1B78B4
:10510000002B01D101238CE00023FB765DE0C82356
:105110003B83FB1D012219462720FFF767FD3861FD
:105120003B69002B01D005237BE0FB7903F00803EA
:10513000002B09D10120FFF7E7FE3B8B013B3B83AE
:105140003B8B002BE5D100E000BFFB7903F00803A7
:10515000002B06D1FB7919463548FFF7FBFC0623E7
:105160005FE007F10803062219462920FFF73EFDFC
:1051700038613B69002B01D0022352E03B7A1BB21D
:105180001B021AB27B7A1BB213431BB21A467B6A0C
:1051900013447B62BB7A1BB21B021AB2FB7A1BB2AE
:1051A00013431BB21A463B6A13443B623B7B1BB260
:1051B0001B021AB27B7B1BB213431BB21A46FB695C
:1051C0001344FB61FB7E0133FB76FA7EFB7D9A4242
:1051D0009DD37A6A13465B019B1A9B001A44FB7DA0
:1051E000DB0292FBF3F31AB2124B1A803A6A1346AF
:1051F0005B019B1A9B001A44FB7DDB0292FBF3F3DD
:105200001AB20D4B1A80FA6913465B019B1A9B0078
:105210001A44FB7DDB0292FBF3F31AB2074B1A80B0
:10522000002318462837BD4680BD00BFE009002096
:10523000945E0000DA090020DC090020DE0900206D
:1052400053B94AB9002908BF00281CBF4FF0FF31ED
:105250004FF0FF3000F088B9ADF1080C6DE904CED5
:1052600000F006F8DDF804E0DDE9022304B0704741
:105270002DE9F047089D0F4604468C46002B48D187
:105280008A42164661D9B2FA82F34BB1C3F12002C9
:1052900001FA03FC20FA02F29E4042EA0C0C9C4008
:1052A0004FEA164EB7B2BCFBFEF1220C0EFB11CC3E
:1052B00042EA0C4201FB07F0904209D9B21801F111
:1052C000FF3C80F0EE80904240F2EB8002393244A5
:1052D000121AA4B2B2FBFEF00EFB102244EA024402
:1052E00000FB07F7A74209D9341900F1FF3280F01B
:1052F000DA80A74240F2D7803444023840EA0140C5
:10530000E41B00211DB1DC400023C5E90043BDE8DA
:10531000F0878B4206D90DB1C5E90001002108468E
:10532000BDE8F087B3FA83F1002948D1BB4202D32C
:10533000824200F20781841A67EB0302012094463F
:10534000002DE4D0C5E9004CE1E7002A00F092808E
:10535000B2FA82F3002B40F0A8808A1A4FEA164E68
:105360001FFA86FC0121200CB2FBFEF70EFB172270
:1053700040EA02420CFB07F0904207D9B21807F14D
:10538000FF3802D2904200F2E2804746121AA4B2DD
:10539000B2FBFEF00EFB102244EA02440CFB00FCC0
:1053A000A44507D9341900F1FF3202D2A44500F216
:1053B000CB801046A4EB0C0440EA0740A2E7C1F101
:1053C00020068B4022FA06FC4CEA030C07FA01F493
:1053D00020FA06F3F7404FEA1C49234300FA01F88C
:1053E0001FFA8CFEB7FBF9F01C0C09FB107744EA9E
:1053F000074400FB0EF7A74202FA01F20AD91CEBA0
:10540000040400F1FF3A80F09B80A74240F29880AC
:1054100002386444E41B9FB2B4FBF9F309FB134464
:1054200047EA044403FB0EFEA64509D91CEB04041D
:1054300003F1FF3780F08280A6457FD9023B6444A8
:1054400043EA0040A4EB0E04A0FB02E7BC42734613
:10545000B94663D360D05DB1B8EB030264EB0904D5
:1054600004FA06F622FA01F31E43CC40C5E90064B3
:1054700000214CE76208480842EAC1710B0C43EA7C
:1054800000438AB242EA0342B3FBF6F1E407B446B2
:105490003746B6461F23B0FBF6F0D21B41EA004167
:1054A00061E7614614E7104628E7C3F1200120FABE
:1054B00001F29E4027FA01F19F403A434FEA164E0F
:1054C0001FFA86FCB1FBFEF70EFB1710110C41EA28
:1054D000004107FB0CF8884504FA03F43AD9711827
:1054E00007F1FF3001D288451FD8A1EB0801B1FBBD
:1054F000FEF808FB0CF70EFB181192B242EA0142CB
:10550000BA422FD2B21808F1FF31C6D2BA42C4D281
:10551000A8F102013244C0E7F0459CD2BEEB020381
:1055200067EB0C070138B94695E7A6EB080841443C
:10553000B81EB1FBFEF808FB0CF7DCE73B467FE743
:10554000504667E70846FBE63444023832E7023F3C
:1055500032441BE7A1EB08013846B1FBFEF808FB1B
:105560000CF7C8E7414698E7704700BF30B51446CE
:10557000002C9BB005461A4605DA8B2303604FF0DA
:10558000FF301BB030BD4FF40273ADF80C304FF05C
:105590000003199314BF04F1FF33234602930593CC
:1055A0004FF6FF7300910491ADF80E3069461E9BD3
:1055B00000F078F8431CBCBF8B232B60002CE0D09C
:1055C000009B00221A70DCE707B5009313460A46D9
:1055D000014603480068FFF7C9FF03B05DF804FB0C
:1055E000000000202DE9F0478E681F46BE4282462B
:1055F0000C469046334653D8B1F90C0010F4906F26
:105600002BD065692368096905EB4505A3EB010902
:1056100005EBD5757B1C6D104B44AB422A4684BF0D
:105620001D462A46430527D511465046FAF7AEFFD8
:10563000064658B321694A4600F05AFBA38923F471
:10564000906343F08003A381266165614E44A5EB1E
:1056500009052660A5603E463B461F4620683A463F
:10566000414600F0D9FAA3689B1BA36023683B4422
:1056700023600020BDE8F087504600F09FFA064600
:105680000028E1D121695046FBF71CF80C23CAF829
:105690000030A38943F04003A3814FF0FF30E9E7D6
:1056A0003E46DBE72DE9F0471F468B891B069CB081
:1056B00006460D46144610D50B6973B94021FAF71A
:1056C00065FF2860286130B90C2333604FF0FF304C
:1056D0001CB0BDE8F08740236B61002309932023B1
:1056E0008DF8293003973023654F8DF82A304FF01D
:1056F00001082346994613F8012B0AB1252AF9D14E
:10570000B9EB040A0BD05346224629463046FFF730
:1057100069FF013000F0A480099A5244099299F877
:105720000030002B00F09C8000234FF0FF32CDE9C9
:10573000052309F10109049307938DF853301A9357
:105740004C464F4814F8011B052200F081FA049BD7
:10575000D0B9D80644BF20228DF85320190744BF82
:105760002B228DF8532099F800202A2A13D0079A6B
:105770004C4600204FF00A0C214611F8013B303B0B
:10578000092B49D968B913E0C01B08FA00F0184387
:105790000490A146D4E7039A111D12680391002AD0
:1057A00001DB079204E0524243F0020307920493A4
:1057B00023782E2B0AD163782A2B32D1039B1A1D12
:1057C0001B68039243EAE37302340593DFF8C09049
:1057D00021780322484600F03BFA38B1049BA0EB45
:1057E00009004022824013430134049314F8011B42
:1057F00024488DF82810062200F02AFA002835D017
:10580000214818BB039B073323F007030833039396
:10581000099B034409936CE70CFB02320C46012000
:10582000AAE700230134059319464FF00A0C2046DD
:1058300010F8012B303A092A03D9002BC6D0059164
:10584000C4E70CFB012104460123F0E703AB0093FE
:105850002A460E4B04A93046AFF30080421CD7D134
:10586000AB895B063FF532AF099831E703AB009394
:105870002A46064B04A9304600F07AF8EEE700BF4E
:105880002F5F0000395F000000000000E5550000B8
:10589000355F00002DE9F047164698468A680B6987
:1058A000DDF820909342B8BF1346336091F843204F
:1058B00007460C460AB1013333602368990642BF9C
:1058C000336802333360256815F0060506D104F10C
:1058D000190AE36832689B1AAB4226DC94F843301D
:1058E0002268003B18BF012392062BD404F1430227
:1058F00041463846C84701301ED02368226903F06C
:105900000603042B02BFE5683368ED1AA3680CBFD9
:1059100025EAE57500259342C4BF9B1AED180026C1
:105920001A34B5421AD1002008E0012352464146FC
:105930003846C847013003D14FF0FF30BDE8F0874B
:105940000135C6E7E1185A1C302081F84300224493
:1059500094F8451082F843100233C7E7012322462A
:1059600041463846C8470130E6D00136D9E7000045
:105970002DE9F0430D7E85B0782D90460C9E0746AC
:105980000C46994601F1430207D8622D0AD8002D32
:1059900000F0D780582D00F0BC8004F1420684F856
:1059A00042503BE0A5F16303152BF6D801A151F855
:1059B00023F000BF0D5A0000215A00009B5900003F
:1059C0009B5900009B5900009B590000215A000080
:1059D0009B5900009B5900009B5900009B590000F7
:1059E000295B00004B5A0000DB5A00009B59000065
:1059F0009B5900004B5B00009B5900004B5A000074
:105A00009B5900009B590000E35A000033681A1D9F
:105A10001B68326004F1420684F842300123A1E0A1
:105A200033682068191D3160060601D51D6803E042
:105A30004506FBD5B3F90050002D03DA2D236D4246
:105A400084F843305B480A2311E021683368080674
:105A500053F8045B02D4490648BFADB23360237EDD
:105A600054486F2B5CD10823002184F843106668EA
:105A7000A660002E05DB21682E4321F00401216081
:105A800050D01646B5FBF3F103FB115C10F80CC0C7
:105A900006F801CDAC4663450D46F3D9082B0BD172
:105AA0002368DB0708D5236961689942DEBF30238C
:105AB00006F8013C06F1FF36921B2261CDF80090FA
:105AC000434603AA21463846FFF7E4FE01304ED193
:105AD0004FF0FF3005B0BDE8F083236843F02003AA
