:1000000000000420590700001D200000F107000037
:10001000F9070000F9070000F907000000000000E0
:10002000000000000000000000000000F9070000D0
:10003000F907000000000000F90700006D0C000047
:10004000F90700008D3F00009B3F0000A93F000022
:10005000F9070000F9070000F9070000F9070000A0
:10006000F9070000F9070000F9070000F907000090
:10007000F9070000F9070000F9070000FD4A000039
:100080000B4B0000194B0000274B0000354B0000C4
:10009000434B0000514B00005F4B00006D4B0000D4
:1000A0007B4B0000F9070000F9070000F90700008A
:1000B000F9070000F9070000F9070000F907000040
:1000C000F9070000F9070000F9070000F907000030
:1000D00099360000A5360000B1360000BD3600009C
:1000E000C9360000D5360000E1360000F9070000EF
:1000F000F9070000F9070000F9070000F907000000
:10010000F9070000F9070000F9070000F9070000EF
:10011000F9070000F9070000F9070000F9070000DF
:10012000F9070000F9070000F9070000F9070000CF
:10013000DD310000EB310000F9310000055800000E
:1001400013580000215800002F5800003D580000AF
:100150004B580000F9070000F9070000F9070000FC
:10016000F9070000F9070000991E0000A71E000013
:10017000B51E0000F9070000F9070000F9070000AC
:10018000F9070000F9070000F9070000F90700006F
:10019000F9070000F9070000F9070000F90700005F
:1001A000F9070000F9070000F9070000F90700004F
:1001B000F9070000F9070000F9070000F90700003F
:1001C000F9070000F9070000F9070000F90700002F
:1001D00007320000F9070000F9070000F9070000E6
:1001E000F9070000F9070000F9070000F90700000F
:1001F00059580000675800007558000083580000E7
:10020000915800009F580000AD580000F907000009
:10021000F9070000F9070000F9070000F9070000DE
:10022000F9070000F9070000F9070000F9070000CE
:10023000F9070000000000000000000000000000BE
:1002400000000000000000000000000000000000AE
:10025000000000000000000000000000000000009E
:10026000000000000000000000000000000000008E
:10027000000000000000000000000000000000007E
:10028000000000000000000000000000000000006E
:10029000000000000000000000000000000000005E
:1002A000000000000000000000000000000000004E
:1002B000000000000000000000000000000000003E
:1002C000000000000000000000000000000000002E
:1002D000000000000000000000000000000000001E
:1002E000000000000000000000000000000000000E
:1002F00000000000000000000000000000000000FE
:1003000000000000000000000000000000000000ED
:1003100000000000000000000000000000000000DD
:1003200000000000000000000000000000000000CD
:1003300000000000000000000000000000000000BD
:1003400000000000000000000000000000000000AD
:10035000000000000000000000000000000000009D
:10036000000000000000000000000000000000008D
:10037000000000000000000000000000000000007D
:10038000000000000000000000000000000000006D
:10039000000000000000000000000000000000005D
:1003A000000000000000000000000000000000004D
:1003B000000000000000000000000000000000003D
:1003C0000348044B834202D0034B03B118477047E4
:1003D0002401002024010020000000000548064BF5
:1003E0001B1AD90F01EBA301491002D0034B03B133
:1003F000184770472401002024010020000000005D
:1004000010B5064C237843B9FFF7DAFF044B13B15C
:100410000448AFF300800123237010BD24010020A5
:1004200000000000C8A5000008B5054B1BB1054938
:100430000548AFF30080BDE80840FFF7CFBF00BF1D
:100440000000000028010020C8A50000A3F5803AA4
:10045000704700BF174B002B08BF134B9D46FFF79B
:10046000F5FF00218B460F461348144A121A00F07C
:100470003DF80E4B002B00D098470D4B002B00D0C1
:1004800098470020002104000D000D48002802D0EC
:100490000C48AFF3008000F031F82000290000F094
:1004A00029FB00F011F800BF000008000000000068
:1004B000000000000000042024010020DC140020C3
:1004C000000000000000000008B5064B044613B110
:1004D0000021AFF30080044B1B6803B1984720460E
:1004E00009F0A8F900000000780200200244034649
:1004F000934200D1704703F8011BF9E770B50D4B2B
:100500000D4D5B1B9C100026A64209D109F094F901
:100510000A4D0B4B5B1B9C100026A64205D170BDFB
:1005200055F8043B98470136EEE755F8043B9847E9
:100530000136F2E71C0100201C0100201C010020F4
:10054000200100207047704738B50546002941D08A
:1005500051F8043C0C1F002BB8BFE41800F0E0F881
:100560001D4A136833B9636014602846BDE83840FB
:1005700000F0DCB8A34208D9206821188B4201BFE3
:1005800019685B6809182160EDE71A465B680BB1D2
:10059000A342FAD911685018A0420BD12068014437
:1005A000501883421160E0D118685B6853600844BA
:1005B0001060DAE702D90C232B60D6E720682118F7
:1005C0008B4204BF19685B68636004BF091821602F
:1005D0005460CAE738BD00BF8802002070B50F4ED6
:1005E0000C463168054611B900F0A6F83060214686
:1005F000284600F0A1F8431C03D14FF0FF342046F9
:1006000070BDC41C24F00304A042F8D0211A28466F
:1006100000F092F80130F2D1EFE700BF8402002031
:100620002DE9F843CD1C25F0030508350C2D38BF06
:100630000C25002D064601DBA94204D90C233360AA
:100640000020BDE8F883DFF8D48000F069F8D8F81E
:1006500000301C4644BB29463046FFF7BFFF431C11
:10066000044658D1D8F800402746002F43D1002C2B
:100670004BD023683946304604EB030900F05CF8A0
:10068000814542D121686D1A29463046FFF7A6FF01
:1006900001303AD023682B442360D8F800305A68E0
:1006A00062BBC8F800700FE02268521B20D40B2AEE
:1006B00017D96119A342256018BF5960636808BF44
:1006C000C8F8001062514B60304600F02FF804F17A
:1006D0000B00231D20F00700C21A1CBF1B1AA350D9
:1006E000AFE76268A3420CBFC8F800205A60EBE78E
:1006F00023466468AEE73C467F68B6E71A465B6807
:10070000A342FBD100235360DEE70C233360304665
:1007100000F00CF894E70560D6E700BF88020020DF
:100720000148FFF70FBF00BF800200200148FFF71C
:100730000ABF00BF8002002038B5064D00230446E2
:1007400008462B6009F068F8431C02D12B6803B1FE
:10075000236038BD7C02002080B584B000AF00F07B
:1007600073F81F4BFB6019E00023BB600EE0FB68D1
:100770001A68BB689B001A44FB685968BB689B00F9
:100780000B4412681A60BB680133BB60FB689B684E
:10079000BA689A42EBD3FB680C33FB60FB68114AE2
:1007A0009342E1D3104B7B6014E000233B6009E0EF
:1007B0007B681A683B689B00134400221A603B6800
:1007C00001333B607B685B683A689A42F0D37B6890
:1007D00008337B607B68054A9342E6D3FFF73AFE15
:1007E000D4A50000ECA50000ECA50000ECA50000DD
:1007F00080B400AF00BFFDE780B400AF00BFFDE7ED
:1008000080B400AF0E4B4AF25A52C3F8F0200C4BA2
:1008100000229A604FF080435722C3F8F0204FF037
:1008200080437522C3F8F020064B15221A60054B51
:1008300051221A6000BFBD465DF8047B704700BFBF
:1008400000020040F00F014180B500AF72B600BF5A
:10085000044B054A9A60FFF7D3FF62B600BF00BFA2
:1008600080BD00BF00ED00E00000000080B485B056
:1008700000AF78600B4B1A687B6802FB03F3BB6028
:100880000023FB6003E000BFFB680133FB60FA68F4
:10089000BB689A42F7D300BF00BF1437BD465DF86E
:1008A000047B70475800002080B485B000AF7860AA
:1008B0000B4B1A687B6802FB03F3BB600023FB60F1
:1008C00003E000BFFB680133FB60FA68BB689A4233
:1008D000F7D300BF00BF1437BD465DF8047B7047F7
:1008E0005C00002080B400AF4FF080439B6A4FF063
:1008F000804243F4FE4393624FF080431B6B4FF002
:10090000804243F4FE4313636C4B15221A606B4B19
:1009100051221A606A4B00221A61694B00221A6345
:10092000674B00229A63664B0022DA63644B002215
:100930005A61634B634A1A60614B634A5A60604B69
:100940006FF040729A605E4B0022DA605F4B0022CB
:100950001A615E4B00221A635C4B3F229A635B4B29
:100960000022DA63594B00225A61584B4FF08852EB
:100970001A60564B07225A60544B4FF47C329A60EF
:10098000524B0022DA60524B00221A61504B002277
:100990001A634F4B00229A634D4B0022DA634C4B93
:1009A00000225A614A4B4B4A1A60494B4A4A5A60E4
:1009B000474B4FF0FF329A60454B484ADA60484B4C
:1009C00000221A61464B00221A63454B00229A63AB
:1009D000434B0022DA63424B00225A61404B4FF0F6
:1009E00077321A603E4B4FF077325A603C4B4FF0F3
:1009F000FF329A603A4B0022DA603A4B00221A61C9
:100A0000384B00221A63374B00229A63354B002281
:100A1000DA63344B00225A61324B4FF077321A605E
:100A2000304B4FF077325A602E4B4FF0FF329A60C6
:100A30002C4B0022DA602C4B00221A612A4B002238
:100A40001A63294B00229A63274B0022DA63264B54
:100A500000225A61244B254A1A60234B4FF077320B
:100A60005A60214B6FF440429A601F4B0022DA60BB
:100A70001F4B00221A611E4B00221A631C4B0022DE
:100A80009A631B4B0022DA63194B00225A61184B00
:100A90004FF077321A60164B4FF077325A60144B92
:100AA0004FF0FF329A60124B0022DA60034B0022B3
:100AB0001A6000BFBD465DF8047B7047F00F01412E
:100AC000000001417770777711777077000101415D
:100AD0000002014133337317013377778A82A20012
:100AE00000030141000401410005014177777707C8
:100AF0000006014180B500AFFFF7F4FE00F00EF8EC
:100B000000F0DAFC00F064FC00F03CFB00F0D4FBE9
:100B100000F0B4F90023184680BD000080B586B00F
:100B200000AF0123FB750123BB7502233B74002337
:100B30007B740023BB74264A3B1D07CA03C31A708B
:100B40000121022003F064F80121012003F060F884
:100B50000121002003F05CF80121032003F058F884
:100B600007F11003184602F0B3FF3A1DFB7D114652
:100B7000184603F0A1F8BB7D002B06D004233B747C
:100B800000237B740023BB7405E004233B74002323
:100B90007B740023BB7407F11003184602F098FF22
:100BA000002003F065F900220F21022003F034F940
:100BB0000021022003F02CF80021002003F028F887
:100BC0000021032003F024F800BF1837BD4680BD84
:100BD0005098000080B483B000AF03463960FB71C9
:100BE00097F90730002B0ADB3B68DAB20C4997F91A
:100BF00007301201D2B20B4483F800230AE03B68AD
:100C0000DAB20849FB7903F00F03043B1201D2B2B8
:100C10000B441A7600BF0C37BD465DF8047B704765
:100C200000E100E000ED00E080B582B000AF786048
:100C30007B68013BB3F1807F01D301230FE00A4AB7
:100C40007B68013B53600F214FF0FF30FFF7C2FF7D
:100C5000054B00229A60044B07221A6000231846B5
:100C60000837BD4680BD00BF10E000E080B500AF92
:100C7000134B1B68002B04D0114B1B68013B104A1F
:100C8000136005F071FF0F4B1B78DBB2002B06D011
:100C90000D4B1B78DBB20133DAB20B4B1A700B4BE6
:100CA0001B680133094A1360084B1B680F2B04D9DA
:100CB000064B00221A6005F027FA00BF80BD00BF76
:100CC0008C020020900A00208F0A00209002002051
:100CD00080B483B000AF7860074A7B68136000BFC0
:100CE000054B1B68002BFBD100BF00BF0C37BD4676
:100CF0005DF8047B704700BF8C02002080B582B095
:100D000000AF03460A46FB711346BB71B979FB7904
:100D10000122184602F04AFC00BF0837BD4680BDDC
:100D200080B582B000AF03460A46FB711346BB7123
:100D3000B979FB790022184602F038FC00BF083769
:100D4000BD4680BD80B584B000AF03463A60FB71FC
:100D50000B46BB710023FB6014E0BA79FB791146A6
:100D60001846FFF7CBFF6420FFF7B2FFBA79FB7993
:100D700011461846FFF7D4FF6420FFF7A9FFFB6870
:100D80000133FB60FA683B689A42E6D300BF00BFBC
:100D90001037BD4680BD80B500AF00220421012080
:100DA00002F016FB00220921012002F011FB0022B3
:100DB0000721052002F00CFB00220521012002F092
:100DC00007FB00220A21012002F002FB00220B2176
:100DD000012002F0FDFA00220C21012002F0F8FAB5
:100DE00000220D21012002F0F3FA00220E21012041
:100DF00002F0EEFA00220F21012002F0E9FA0421AC
:100E00000120FFF78DFF09210120FFF789FF07214E
:100E10000520FFF785FF05210120FFF781FF0A214B
:100E20000120FFF77DFF0B210120FFF779FF0C2147
:100E30000120FFF775FF0D210120FFF771FF0E2143
:100E40000120FFF76DFF0F210120FFF769FF01224D
:100E50000621012002F0BCFA01220721012002F044
:100E6000B7FA01220821002002F0B2FA012209217A
:100E7000002002F0ADFA00BF80BD000080B586B052
:100E800000AF5B4B1B685B4AA2FB03239B09184620
:100E9000FFF7CAFEFFF77FFF04F02AFD0346002B91
:100EA00004D004210120FFF729FF04E005220421DA
:100EB0000120FFF747FF504804F0B2FD4F4804F00F
:100EC000AFFD4F4804F0ACFD4E4804F0A9FD4E487C
:100ED00004F0A6FD4A4804F0A3FD4C4804F0A0FD30
:100EE00007F0C8FB07F026FC0346FB72FB7A002BD9
:100EF00004D0FB7A1946464804F0A2FD4FF47A70FC
:100F0000FFF7E6FE434804F08BFD434804F088FDFC
:100F1000424804F085FD424804F082FD05F0CAFD18
:100F20000346002B03D13F4804F07AFD02E03E481F
:100F300004F076FD3D4804F073FD05F03BFF07F03B
:100F40003DFA0346002B0CBF01230023DBB2FB75E7
:100F5000FB7D002B03D0364804F062FD02E03548EB
:100F600004F05EFD00233B610123FB60294804F08F
:100F700057FD3B695A1C3A6119462F4804F060FD41
:100F80002E4804F04DFD07F08DFC7860FB7D002BB2
:100F90000DD02B4804F044FD786807F05BFAFB683D
:100FA0005A1CFA601946274804F04AFD1CE00B2140
:100FB0000120FFF7B5FE0C210120FFF7B1FE22480A
:100FC00004F02EFD07F0FAF90346002B0CBF0123B5
:100FD0000023DBB2FB75FB7D002B05D0786807F0A2
:100FE00039FA1A4804F01CFD6420FFF771FEBDE7D2
:100FF00050000020D34D62105C98000064980000FF
:1010000088980000AC980000D0980000F498000088
:101010001C990000409900006C9900009C99000008
:10102000C8990000E8990000F8990000149A00009F
:10103000389A0000609A0000809A0000909A0000A0
:10104000BC9A0000D49A0000EC9A0000109B0000AB
:1010500080B588B002AF0023FB7507F110030022B2
:101060001A601A710223FB743B1D00221A605A6039
:101070001A7201233B7101233B73022000F02AFC0A
:101080000346FB7597F91730002B24D107F11003A5
:101090001946022000F058FC0346FB7597F91730FB
:1010A000002B1AD13B1D1946022000F077FC0346A5
:1010B000FB7597F91730002B11D103230093002300
:1010C000094A0021022000F0D3FC0346FB7597F982
:1010D0001730002B04E000BF02E000BF00E000BFBB
:1010E0001837BD4680BD00BFAB11000080B588B089
:1010F00002AF0023FB7507F1100300221A601A717A
:101100000223FB743B1D00221A605A601A720123ED
:101110003B73002000F0DEFB0346FB7597F91730A8
:10112000002B24D107F110031946002000F00CFC1D
:101130000346FB7597F91730002B1AD13B1D194652
:10114000002000F02BFC0346FB7597F91730002BAD
:1011500011D1032300930023094A0021002000F04D
:1011600087FC0346FB7597F91730002B04E000BF9E
:1011700002E000BF00E000BF1837BD4680BD00BFE1
:101180009511000080B500AFFFF762FFFFF7AEFFDB
:1011900000BF80BD80B483B000AF7860396000BF0D
:1011A0000C37BD465DF8047B704780B483B000AF58
:1011B0007860396000BF0C37BD465DF8047B70472E
:1011C00080B588B002AF0023FB753B1D00221A607A
:1011D0005A609A60DA60174BFB6001233B7432233C
:1011E0007B82002001F0BEF80346FB7597F91730AB
:1011F000002B18D13B1D1946002001F0E5F80346ED
:10120000FB7597F91730002B0FD1032300930023B0
:10121000094A0021002001F04FF90346FB7597F9B8
:101220001730002B02E000BF00E000BF1837BD46BA
:1012300080BD00BFA0860100C912000080B588B043
:1012400002AF0023FB753B1D00221A605A609A60B2
:10125000DA60174BFB6001233B7432237B82022050
:1012600001F080F80346FB7597F91730002B18D171
:101270003B1D1946022001F0A7F80346FB7597F9BC
:101280001730002B0FD1032300930023094A0021BC
:10129000022001F011F90346FB7597F91730002B76
:1012A00002E000BF00E000BF1837BD4680BD00BFB0
:1012B000A0860100DF12000080B500AFFFF780FFBD
:1012C000FFF7BCFF00BF80BD80B483B000AF786083
:1012D000396000BF0C37BD465DF8047B704780B4B1
:1012E00083B000AF7860396000BF0C37BD465DF851
:1012F000047B704780B588B002AF0023FB75324A8B
:1013000007F1100392E803001860043319803B1DB5
:1013100000221A605A601A810123FB7101233B727B
:1013200001237B814FF47A73BB81002003F0E8F83E
:101330000346FB7597F91730002B38D107F11003DE
:101340001946002003F012F90346FB7597F9173090
:10135000002B2ED13B1D1946002003F055F9034602
:10136000FB7597F91730002B25D10023009300233C
:10137000164A0121002003F00FFA0346FB7597F986
:101380001730002B19D10021002003F0C1FA0346C9
:10139000FB7597F91730002B11D10021002003F0C5
:1013A000D8FA0346FB7597F91730002B08E000BF09
:1013B00006E000BF04E000BF02E000BF00E000BFA5
:1013C0001837BD4680BD00BF309B0000DD13000014
:1013D00080B500AFFFF78EFF00BF80BD80B582B043
:1013E00000AF786039607B6803F00103002B0AD0FE
:1013F000074B1B680133064A1360054B1B681946EF
:10140000044804F01DFB00BF0837BD4680BD00BF87
:1014100094020020389B000080B586B002AF002304
:10142000FB73224A07F10C0312681146198002333C
:10143000120C1A701E4A3B1D92E8030083E8030059
:10144000022003F0E5FD0346FB7397F90F30002BF4
:1014500024D107F10C031946022003F02DFE0346A8
:10146000FB7397F90F30002B1AD13B1D1946022050
:1014700003F03BFE0346FB7397F90F30002B11D1AD
:101480000023009300230B4A0121022003F0C2FE37
:101490000346FB7397F90F30002B04E000BF02E016
:1014A00000BF00E000BF1037BD4680BD5C9B000060
:1014B000609B0000C514000080B500AFFFF7ACFFD3
:1014C00000BF80BD80B483B000AF7860396000BFDA
:1014D0000C37BD465DF8047B7047000080B483B0D4
:1014E00000AF0346FB7197F90730002B0BDBFB794C
:1014F00003F01F02074997F907305B09012000FA42
:1015000002F241F8232000BF0C37BD465DF8047B92
:10151000704700BF00E100E080B483B000AF034635
:10152000FB7197F90730002B12DBFB7903F01F02E8
:101530000A4997F907305B09012000FA02F22033CB
:1015400041F82320BFF34F8F00BFBFF36F8F00BF61
:1015500000BF0C37BD465DF8047B704700E100E03A
:1015600080B483B000AF0346FB7197F90730002BBE
:101570000CDBFB7903F01F02074997F907305B0981
:10158000012000FA02F2603341F8232000BF0C373B
:10159000BD465DF8047B704700E100E080B483B095
:1015A00000AF03463960FB7197F90730002B0ADB67
:1015B0003B68DAB20C4997F907301201D2B20B44FA
:1015C00083F800230AE03B68DAB20849FB7903F0AC
:1015D0000F03043B1201D2B20B441A7600BF0C3742
:1015E000BD465DF8047B704700E100E000ED00E0DF
:1015F00080B483B000AF0346FB71FB7903F582032F
:1016000003F590731B0218460C37BD465DF8047B4A
:10161000704780B485B000AF03463960FB714FF06E
:101620008043FB60FB79022B02D96FF0010322E0BB
:10163000FB68DA6AFB791433012101FA03F3DB4317
:101640001A40FB791433396801FA03F31A43FB6833
:10165000DA62FB685A6BFB791433012101FA03F358
:10166000DB431A40FB791433396801FA03F31A4358
:10167000FB685A63002318461437BD465DF8047BA7
:10168000704780B485B000AF0346FB71EF23FB7356
:10169000FB79022B0CD0022B0DDC002B02D0012B8E
:1016A00003D008E04A23FB7306E04B23FB7303E0FF
:1016B0004C23FB7300E000BF97F90F301846143736
:1016C000BD465DF8047B704780B483B000AF78609E
:1016D000084611461A460346FB700B46BB7013467C
:1016E0007B70FB78032B10D87B689A69FB78DB0052
:1016F0001F2101FA03F3DB431340BA78F978C900DC
:101700008A401A437B689A6111E07B68DA69FB784A
:10171000043BDB001F2101FA03F3DB431340BA78DB
:10172000F9780439C9008A401A437B68DA617B681A
:10173000DA68FB789B000F2101FA03F3DB431A40C0
:101740003B7C012B01D13B7D00E00F23F978890020
:101750008B401A437B68DA607B6810331A46FB784B
:101760009B08DBB29B0013441A68FB7803F0030369
:10177000DB001F2101FA03F3DB4313407A78F97889
:1017800001F00301C9008A4011467A681032104600
:10179000FA789208D2B2920002440B4313600023FD
:1017A00018460C37BD465DF8047B704780B584B0A1
:1017B00000AF786039600023FB600FE00B4AFB68E4
:1017C0001B0113440F331B78002B04D0FB68DBB2E2
:1017D000184600F00BFBFB680133FB60FB68022B33
:1017E000ECDD00BF00BF1037BD4680BD9802002071
:1017F00080B582B000AF0346FB71FB791846FFF756
:10180000F7FE034618460837BD4680BD80B582B056
:1018100000AF03460A46FB711346BB71BA79FB79E8
:1018200011461846FFF7F5FE034618460837BD4631
:1018300080BD000080B586B000AF0346FB71002379
:10184000FB75234B3B610023FB60FB791846FFF7D8
:10185000CFFFB860BB681B6843F08002BB681A60AA
:10186000BB689B6823F4FE4343F40072BB689A6034
:10187000BB681B6823F0300343F01002BB681A609A
:10188000BB681B6843F4E062BB681A60BB681B6AF4
:1018900043F00102BB681A6208E03B69013B3B610F
:1018A0003B69002B02D1FC23FB7505E0BB685B6A3A
:1018B00003F00403002BF0D0BB685B6AFB60BB68DD
:1018C000FA685A6297F9173018461837BD4680BD36
:1018D000A086010080B584B000AF0346FB710023F1
:1018E000FB73FB79022B02D96FF0010325E0FB7932
:1018F00001211846FFF78AFF0346FB7397F90F3063
:10190000002B02D097F90F3017E0FB791B010D4A2D
:101910001344102200211846FEF7E8FDFB79184613
:10192000FFF788FF0346FB7397F90F30002B02D0B7
:1019300097F90F3001E097F90F3018461037BD4680
:1019400080BD00BF9802002080B584B000AF034680
:101950003960FB710023FB73FB79022B02D96FF016
:10196000010317E0FB791846FFF742FFB8603B68B8
:101970001B78012B02D1FB23FB7309E0BB689B683A
:1019800023F4FE423B68DB781B021A43BB689A6073
:1019900097F90F3018461037BD4680BD80B586B028
:1019A00000AF03463960FB710023FB75FB79022B06
:1019B00002D96FF0010355E0FB791846FFF718FFD5
:1019C0003861FB791B01294A1344FB603B689B7813
:1019D000012B02D16FF0040344E03B691B6823F044
:1019E00030023B681B78012B04D93B681B78013B14
:1019F0001B0100E000231A433B691A603B691B6826
:101A000023F4E0623B68DB781B021A433B691A60EF
:101A10003B691B6823F007023B685B78002B07D00B
:101A20003B685B78012B01D1012302E00B2300E02E
:101A300000231A433B691A603B691B6823F040028C
:101A40003B685B799B011A433B691A603B691B6ADF
:101A500043F002023B691A623B681A78FB681A730A
:101A600097F9173018461837BD4680BD98020020F8
:101A700080B588B000AFBA607B600346FB730B464D
:101A8000BB730023FB77FB7B022B02D96FF00103B2
:101A900076E0BB7B022B02D16FF0040370E0FB7B8E
:101AA0001B01394A1344BB61FB7B1846FFF7E9FD74
:101AB0000346FB75BB7B022B02DC002B04DC3FE002
:101AC000033B012B3CD824E0BB69DB7B002B09D016
:101AD00097F9170000230022002100F0F3F9BB69F9
:101AE0000022DA73BB69BA685A60BB697A689A6087
:101AF00097F917301846FFF733FD97F91730B96A91
:101B00001846FFF74BFD97F917301846FFF7E6FC2C
:101B100031E097F9170001237A681C4900F0D2F9E7
:101B20000346FB7797F91F30002B05D1BB69BA68D4
:101B30005A60BB697A689A60BB690122DA731AE05D
:101B400097F9170000230022002100F0BBF9BB69C0
:101B50000022DA7397F917301846FFF701FD97F95D
:101B600017301846FFF7D8FCBB6900229A60BB69A2
:101B700000225A6000BFBB69BA7B1A7097F91F3008
:101B800018462037BD4680BD98020020AD170000E2
:101B900080B586B000AF0346FB710023FB75FB796F
:101BA000022B02D96FF0010343E0FB791846FFF7DF
:101BB0001FFE3861FB791B01204A1344FB603B691F
:101BC00000225A623B6900225A623B6900225A6233
:101BD000FB681B78002B12D13B699B6A23F0010242
:101BE0003B699A623B699B6A23F004023B699A62F3
:101BF0003B699B6A23F008023B699A6211E03B69EA
:101C00009B6A43F001023B699A623B699B6A43F01D
:101C100004023B699A623B699B6A43F008023B6994
:101C20009A623B691B6A43F001023B691A6297F9A9
:101C3000173018461837BD4680BD00BF98020020F7
:101C400080B586B000AF0346FB710023FB75FB79BE
:101C5000022B02D96FF001033DE0FB791846FFF734
:101C6000C7FD3861FB791B011D4A1344FB603B69CA
:101C70001B6823F040023B691A60FB685B7B002B0A
:101C800005D13B691B6A23F080023B691A62FB683D
:101C90001B78012B0BD0FB681B78022B07D0FB684D
:101CA0001B78032B03D0FB681B78042B11D13B69F5
:101CB0009B6A23F001023B699A623B699B6A23F0AD
:101CC00004023B699A623B699B6A23F008023B6904
:101CD0009A6297F9173018461837BD4680BD00BF85
:101CE0009802002080B584B000AF03463A60FB71D3
:101CF0000B46BB71FB79022B02D8BB79072B02D9AB
:101D00006FF001032CE0FB791846FFF771FDB86016
:101D10003B681B78002B03D0BB682C33FB6006E0CC
:101D2000BB6830331A46BB799B001344FB60FB68E9
:101D30001B681B099BB2C3F30B039AB23B685A8022
:101D4000FB681B681B0CDBB203F01F03DAB23B68B5
:101D50001A71FB681B681B0EDAB23B685A710023CC
:101D600018461037BD4680BD90B589B002AF034616
:101D70003960FB710023FB75FB79022B02D83B68AD
:101D8000002B02D16FF001032AE0FB791846FFF720
:101D90002FFD3861FB791B01134A1344FB603B683C
:101DA0001B78022B13D13B6859793B6818793B6843
:101DB0009C793B685B783A6892780192009323465D
:101DC00002463869FFF780FC0346FB7502E0FA2300
:101DD000FB7500BF3B685A78FB685A7397F9173058
:101DE00018461C37BD4690BD9802002080B586B0CD
:101DF00000AF0346FB7100237B6100233B61FB794D
:101E00001846FFF7F5FCF860FB791B01214A1344E3
:101E1000BB60FB685B6A3B61FB683A695A623B697D
:101E200003F00103002B03D07B6943F001037B61C6
:101E30003B6903F00403002B03D07B6943F00203EA
:101E40007B613B6903F00803002B03D07B6943F0FF
:101E500004037B61FB7908333A6922FA03F303F048
:101E60000103002B03D07B6943F008037B61BB684F
:101E70005B68002B09D07B69002B06D0BB685B68D0
:101E8000BA68926811467869984700BF1837BD460E
:101E900080BD00BF9802002080B500AF0020FFF792
:101EA000A5FF00BF80BD80B500AF0120FFF79EFFFA
:101EB00000BF80BD80B500AF0220FFF797FF00BFD5
:101EC00080BD000080B489B000AFB9607A601A4666
:101ED0000346FB731346BB730023FB774FF080432D
:101EE000BB611B4B7B61BB695B6D23F40042BB7B19
:101EF000DB031A43BB695A657B69BA7B1A707B693D
:101F00001B78002B0FD0BB695B6D23F47F02FB7B3A
:101F10001B041A43BB695A657B69BA685A607B69BE
:101F20007A689A600BE0BB695B6D23F47F02BB6942
:101F30005A657B6900225A607B6900229A6097F992
:101F40001F3018462437BD465DF8047B704700BF3C
:101F50001C03002090B585B000AF4FF08043BB60FC
:101F600000237B600023FB60BB689B6D7B607B680C
:101F700043F00C42BB689A650023FB6034E02649BD
:101F8000FA6813465B0013449B000B441B78002B3C
:101F900027D07A68FB6822FA03F303F00103002BD1
:101FA0001FD01D49FA6813465B0013449B000B4485
:101FB00004331B68002B14D01749FA6813465B00E2
:101FC00013449B000B4404331C681349FA681346FE
:101FD0005B0013449B000B4408331B681946012027
:101FE000A047FB680133FB60FB68072BC7DD0A4B8A
:101FF00093F85430002B0BD07B6803F40043002B84
:1020000006D0054B9B6D044AD26D114601209847BE
:1020100000BF1437BD4690BDC802002080B500AF98
:10202000FFF798FF00BF80BD80B483B000AF0346C8
:10203000FB7197F90730002B0BDBFB7903F01F02D4
:10204000074997F907305B09012000FA02F241F8CD
:10205000232000BF0C37BD465DF8047B704700BFEE
:1020600000E100E080B483B000AF0346FB7197F954
:102070000730002B12DBFB7903F01F020A4997F9A6
:1020800007305B09012000FA02F2203341F82320D7
:10209000BFF34F8F00BFBFF36F8F00BF00BF0C3780
:1020A000BD465DF8047B704700E100E080B483B07A
:1020B00000AF0346FB7197F90730002B0CDBFB796F
:1020C00003F01F02074997F907305B09012000FA66
:1020D00002F2603341F8232000BF0C37BD465DF8A3
:1020E000047B704700E100E080B483B000AF03469A
:1020F0003960FB7197F90730002B0ADB3B68DAB2D5
:102100000C4997F907301201D2B20B4483F800232F
:102110000AE03B68DAB20849FB7903F00F03043B9D
:102120001201D2B20B441A7600BF0C37BD465DF8DF
:10213000047B704700E100E000ED00E080B485B072
:1021400000AF03463960FB714FF08043FB60FB79C1
:10215000032B02D96FF0010322E0FB68DA6AFB79F6
:102160000433012101FA03F3DB431A40FB79043302
:10217000396801FA03F31A43FB68DA62FB685A6BA9
:10218000FB790433012101FA03F3DB431A40FB79A5
:102190000433396801FA03F31A43FB685A630023D6
:1021A00018461437BD465DF8047B704780B483B091
:1021B00000AF0346FB71FB7903F58003A0331B02DC
:1021C00018460C37BD465DF8047B704780B485B077
:1021D00000AF0346FB71EF23FB73FB79032B17D88A
:1021E00001A252F823F000BFF9210000FF210000F6
:1021F000052200000B2200003C23FB7309E03D2375
:10220000FB7306E03E23FB7303E06423FB7300E0F3
:1022100000BF97F90F3018461437BD465DF8047BB0
:10222000704700BF80B483B000AF03463960FB71D4
:1022300000BF0C37BD465DF8047B704780B584B0A5
:1022400000AF786039600023FB6011E00C4AFB6846
:102250002C2101FB03F3134429331B78002B04D0FA
:10226000FB68DBB2184600F0A1FDFB680133FB60A0
:10227000FB68032BEADD00BF00BF1037BD4680BD01
:102280002803002080B582B000AF0346FB71FB79C4
:102290001846FFF78BFF034618460837BD4680BD3A
:1022A00080B582B000AF03460A46FB711346BB718E
:1022B000BA79FB7911461846FFF740FF03461846E6
:1022C0000837BD4680BD000080B485B000AF78609F
:1022D0000023BB600D4BFB6008E0FB68002B02D1C4
:1022E0004FF0FF330CE0FB68013BFB607B685B69F0
:1022F00003F08003002BF0D07B689B68BB60BB6859
:1023000018461437BD465DF8047B704780841E0074
:1023100080B485B000AF7860114BFB607B685B696F
:1023200043F002027B685A6105E0FB68002B09D08C
:10233000FB68013BFB607B685B6903F08003002B5B
:10234000F3D000E000BF7B685B6923F002027B688A
:102350005A6100BF1437BD465DF8047B704700BF6B
:1023600080841E0080B584B000AF0346FB7100235B
:10237000FB73FB79032B02D96FF001031EE0FB799D
:1023800001211846FFF78CFF0346FB7397F90F30C6
:10239000002B02D097F90F3010E0FB792C2202FBC2
:1023A00003F3084A13442C2200211846FEF79EF836
:1023B000FB791846FFF766FF97F90F30184610377C
:1023C000BD4680BD2803002080B586B000AF03461F
:1023D0003960FB71FB79032B02D96FF0010363E0D5
:1023E000FB791846FFF74EFF3861FB792C2202FB80
:1023F00003F32F4A1344FB603B681A78FB681A7397
:102400003B69DB6823F0FE023B685B785B001A43A4
:102410003B69DA603B69DB6823F001033A68927834
:102420001A433B69DA603B689B68002B0DD0214B57
:102430001A683B689B68B2FBF3F35B089BB2023BF4
:10244000FB82FB8A013BBB8205E03B681B89FB8268
:102450003B685B89BB823B699B691B0C1B04FA8A46
:102460001A433B699A613B69DB691B0C1B04BA8AFE
:102470001A433B69DA613B681B7B002B0BD03B693D
:102480001B6A23F4FF4323F07F033A68D2891A437F
:102490003B691A6207E03B691B6A23F4FF4323F0A0
:1024A0007F033A691362002318461837BD4680BD82
:1024B000280300205400002080B588B000AFBA6027
:1024C0007B600346FB730B46BB730023FB77FB7BF0
:1024D000032B02D96FF0010375E0FB7B2C2202FB7A
:1024E00003F33B4A1344BB61FB7B1846FFF76EFEC8
:1024F0000346FB75BB7B012B05D0002B42DD033B64
:10250000012B3FD826E0BB6993F82930002B0AD075
:1025100097F91700002300220021FFF7D3FCBB69C5
:10252000002283F82920BB69BA685A60BB697A68BF
:102530009A6097F917301846FFF7B8FD97F91730EA
:10254000B96A1846FFF7D0FD97F917301846FFF71C
:102550006BFD33E097F9170001237A681D49FFF7F7
:10256000B1FC0346FB7797F91F30002B05D1BB69FF
:10257000BA685A60BB697A689A60BB69012283F8BD
:1025800029201BE097F91700002300220021FFF704
:1025900099FCBB69002283F8292097F91730184667
:1025A000FFF784FD97F917301846FFF75BFDBB690D
:1025B00000229A60BB6900225A6000BFBB69BA7BE7
:1025C0001A7097F91F3018462037BD4680BD00BFEE
:1025D000280300203D22000090B589B000AFBA600A
:1025E0007B600346FB730B46BB730023FB77012321
:1025F000BB7700237B7700233B77FB7B032B02D940
:102600006FF00103EBE0FB7B1846FFF73BFEB86180
:10261000FB7B2C2202FB03F3734A13447B617B692F
:102620005B7B002B02D06FF00203D8E07B690122B4
:102630005A737B69BA681A617B697A689A617B69A7
:1026400000221A627B691B78002B03D097F8303088
:10265000002B01D00023BB77BB695B6923F010021C
:10266000BB7F1B011A43BB695A61BB695B6943F0BD
:102670000802BB695A61BB6979229A607B691B7B3E
:10268000002B0ED1BB691B6823F0FF02BB7B5B00F4
:102690001A43BB691A60BB695B6943F00102BB69FD
:1026A0005A61BB7F83F00103DBB2002B00F0958001
:1026B00087E0B869FFF708FE38613B69972B1BD0AC
:1026C0003B69972B44D83B69872B15D03B69872BF7
:1026D0003ED83B69472B22D03B69472B38D83B6912
:1026E000462B0CD03B69462B32D83B69172B03D0C5
:1026F0003B69222B08D02BE001237B773AE00023B3
:102700007B7701233B7735E07B691A6A7B699B699C
:102710009A422CD300237B7701233B7727E00123C8
:102720007B7700233B777B691A6A7B699B699A42B6
:102730001FD300237B777B691B7B002B04D1B869F7
:10274000FFF7E6FD01233B77BB6979229A6010E031
:1027500000237B777B691B7B002B02D1B869FFF7D5
:10276000D7FDBB6979229A60F723FB7702E000BFAF
:1027700000E000BF97F91F30002B2AD17B7F002B90
:102780001FD07B691A6A7B699B69013B9A4205D11C
:10279000BB695B6923F00802BB695A61BB691B68AE
:1027A00023F0FF027B6919697B691B6A5C1C7869ED
:1027B00004620B441B781A43BB691A60BB69792217
:1027C0009A603B7F83F00103DBB2002B7FF471AF93
:1027D00000E000BF7B6900225A7397F91F3018464A
:1027E0002437BD4690BD00BF2803002090B589B0B6
:1027F00000AFBA607B600346FB730B46BB730023DC
:10280000FB770123BB7700237B7700233B77FB7BA0
:10281000032B02D96FF001032CE1FB7B1846FFF775
:1028200031FDB861FB7B2C2202FB03F3934A134476
:102830007B617B699B7B002B02D06FF0020319E167
:102840007B6901229A737B69BA685A617B697A68ED
:10285000DA617B6900225A627B691B78002B03D006
:1028600097F83030002B01D00023BB77BB695B6940
:1028700023F01002BB7F1B011A43BB695A61BB697D
:102880005B6943F00802BB695A61BB6979229A60AF
:102890007B691B7B002B10D1BB691B6823F0FF02F7
:1028A000BB7B5B00134343F00102BB691A60BB6949
:1028B0005B6943F00102BB695A61BB7F83F001038E
:1028C000DBB2002B00F0D5807B69002283F8282042
:1028D000C3E0B869FFF7F8FC38613B69952B31D04C
:1028E0003B69952B73D83B69852B15D03B69852BAC
:1028F0006DD83B69452B4CD03B69452B67D83B696C
:10290000442B41D03B69442B61D83B69152B0ED039
:102910003B69202B21D05AE07B691B7B002B65D1C2
:1029200000237B777B69012283F828205EE07B69A6
:102930001B7B012B5CD100237B777B69012283F811
:10294000282055E07B691B7B012B53D100237B772B
:102950007B69012283F828204CE07B695A6A7B69F5
:10296000DB699A4248D37B6993F82830002B43D027
:1029700000237B7701233B777B6900225A627B69C6
:10298000002283F8282037E000237B7701233B7760
:1029900035E001237B7700233B777B695A6A7B69AB
:1029A000DB699A422AD37B6993F82830002B25D023
:1029B00000237B777B691B7B002B04D1B869FFF771
:1029C000A7FC01233B77BB6979229A6016E00023BC
:1029D0007B777B691B7B002B02D1B869FFF798FCE2
:1029E000BB6979229A60F723FB7708E000BF06E015
:1029F00000BF04E000BF02E000BF00E000BF97F9A5
:102A00001F30002B31D17B7F002B1DD07B6993F8C9
:102A10002830002B18D07B695A6A7B69DB69013B3F
:102A20009A4205D1BB695B6923F00802BB695A6110
:102A3000BB691C687B695A697B695B6A581C796948
:102A400048621344E2B21A707B695A6A7B69DB6997
:102A50009A4202D2BB6979229A603B7F83F00103DC
:102A6000DBB2002B7FF435AF00E000BF7B690022B2
:102A70009A73002318462437BD4690BD28030020D2
:102A800090B484B000AFF860B9607A600C4B1B68FA
:102A90000D2B10D87B681A06BB681B0242EA0301A3
:102AA000FB68DAB2064B1B68581C054C20600A43D1
:102AB000044941F8232000BF1037BD4690BC704741
:102AC00018040020D803002080B58CB000AFBA6095
:102AD0007B600346FB730B46BB73002387F82630ED
:102AE0000023FB620023BB62002387F82730A14B41
:102AF00000221A60FB7B032B02D96FF0010351E126
:102B0000FB7B1846FFF7BEFB3862FB7B2C2202FBE7
:102B100003F3994A1344FB61FB695B7B002B03D1F0
:102B2000FB699B7B002B02D06FF002033AE1FB694B
:102B300001225A733B6A5B6923F010023B6A5A61B7
:102B40003B6A5B6943F008023B6A5A613B6A79223F
:102B50009A603B6A1B6823F0FF02BB7B5B001A4351
:102B60003B6A1A603B6A5B6943F001023B6A5A6147
:102B7000386AFFF7A9FBB861BB69B3F1FF3F0FD11A
:102B800097F827301A460021FF20FFF779FF386AAF
:102B9000FFF7BEFBFB6900225A736FF0080301E1E7
:102BA00097F82730002B7ED197F827301A4600215E
:102BB000B869FFF765FFBB69472B35D0BB69872B29
:102BC00065D1FA6A7B689A4210D23B6A1B6823F08F
:102BD000FF02FB6A591CF962B9680B441B781A435F
:102BE0003B6A1A603B6A79229A60DAE0012387F82F
:102BF00027303B6A5B6943F008023B6A5A613B6AD3
:102C00001B6823F0FF02BB7B5B00134343F0010210
:102C10003B6A1A603B6A5B6943F001023B6A5A6196
:102C20003B6A79229A60BCE0FA6A7B689A4210D2C9
:102C30003B6A1B6823F0FF02FB6A591CF962B96802
:102C40000B441B781A433B6A1A603B6A79229A60EC
:102C5000A7E0012387F827303B6A5B6943F008024D
:102C60003B6A5A613B6A1B6823F0FF02BB7B5B0037
:102C7000134343F001023B6A1A603B6A5B6943F00D
:102C800001023B6A5A613B6A79229A6089E0386A9C
:102C9000FFF73EFB3B6A79229A60FB6900225A7378
:102CA0006FF008037EE0BB69852B09D0BB69852BDB
:102CB00064D8BB69442B4AD0BB69452B0BD05DE07F
:102CC00097F827301A460021B869FFF7D9FE3B6A0A
:102CD00079229A6065E00023FB75BA6AFB6B9A4221
:102CE00011D397F827301A46FE21B869FFF7C8FEBE
:102CF000386AFFF70DFB3B6A79229A60FB69002274
:102D00005A7300234EE03B6A1B68FB75BA6AFB6B83
:102D10009A4206D2BB6A5A1CBA62BA6B1344FA7D55
:102D20001A70FB7D97F827201946B869FFF7A8FEAF
:102D3000BA6AFB6B9A4206D13B6A5B6923F00802D0
:102D40003B6A5A612DE03B6A79229A6029E097F844
:102D500027301A460021B869FFF792FE386AFFF75C
:102D6000D7FA3B6A79229A60FB6900225A730023E2
:102D700018E000BF180400202803002097F827302F
:102D80001A460021B869FFF77BFE386AFFF7C0FAE0
:102D90003B6A79229A60FB6900225A736FF008033C
:102DA00000E0E5E618463037BD4680BD90B589B0F5
:102DB00000AF0346FB710023BB600023FB770023B9
:102DC000BB77FB79032B00F20482FB791846FFF7EF
:102DD00059FAB861FB792C2202FB03F3AF4A134482
:102DE0007B617B699B68002B09D07B699B683B6199
:102DF0003B695A1CFB7911461846FFF713FABB6969
:102E00009B68FB60FB68472B00F29E80152B2DD240
:102E100092E1853B122B00F28F8101A252F823F040
:102E20003D3000001F310000C92F00003931000083
:102E300039310000393100003931000039310000EA
:102E400039310000393100003931000039310000DA
:102E500039310000393100003931000039310000CA
:102E6000853000003931000003300000153B322B63
:102E700000F2628101A252F823F000BF6F3000001F
:102E8000393100008F2F0000393100003931000046
:102E9000393100003931000039310000393100008A
:102EA0003931000039310000A13000003931000013
:102EB000572F00003931000039310000393100004E
:102EC000393100003931000039310000393100005A
:102ED000393100003931000039310000393100004A
:102EE000393100003931000039310000393100003A
:102EF000393100003931000039310000393100002A
:102F00003931000039310000393100003931000019
:102F10003931000039310000393100003931000009
:102F200039310000393100003931000039310000F9
:102F30003931000039310000D9300000D9300000AB
:102F40000330000003300000972B00F2F580852B42
:102F5000BFF45FAFF0E07B691A6A7B699B699A42B4
:102F6000C0F0ED807B695B7B002B00F0E8800023E4
:102F7000FB77BB6843F00103BB607B6900221A62E8
:102F80007B6900229A617B6900225A73D7E0012392
:102F9000FB777B691B7B002B40F0D3807B691A6A2F
:102FA0007B699B699A42C0F0CC800023FB77BB69A8
:102FB0005B6943F00202BB695A61BB695B6923F03C
:102FC0000802BB695A61BCE00123FB777B691B7B6C
:102FD000002B40F0B8807B691A6A7B699B699A4232
:102FE000C0F0B1800023FB77BB695B6943F002024C
:102FF000BB695A61BB695B6923F00802BB695A610E
:10300000A1E00123FB777B691B7B002B40F09D80B7
:103010007B691A6A7B699B699A42C0F0968000239B
:10302000FB77BB695B6943F00202BB695A61BB690C
:103030005B6923F00802BB695A6186E07B691B7BF0
:10304000002B40F084800023BB777B69012283F84A
:1030500028207B695B6A5A1C7B69DB699A4276D1BE
:10306000BB695B6923F00802BB695A616FE07B6949
:103070001B7B012B6DD10023BB777B69012283F879
:10308000282066E07B691B7B012B64D10123BB7781
:103090007B69012283F828205DE000BF280300201F
:1030A0007B695A6A7B69DB699A4256D37B6993F8DC
:1030B0002830002B51D00023BB77BB6843F00203BC
:1030C000BB607B6900225A627B6900229A737B692C
:1030D000002283F8282040E07B691B7B002B1BD15A
:1030E0007B695B6A5A1C7B69DB69013B9A4206D1AA
:1030F000BB695B6923F00802BB695A610CE07B691C
:103100005A6A7B69DB69013B9A4205D1BB695B69FD
:1031100043F00202BB695A610123BB7720E0002320
:10312000FB777B691B7B002B19D1BB695B6943F083
:103130000102BB695A6112E00023FB7710E000BF77
:103140000EE000BF0CE000BF0AE000BF08E000BFD7
:1031500006E000BF04E000BF02E000BF00E000BFE7
:10316000FB7F002B0FD0BB691B6823F0FF027B693C
:1031700019697B691B6A5C1C786904620B441B78C3
:103180001A43BB691A60BB7F002B10D07B6993F890
:103190002830002B0BD0BB691C687B695A697B699E
:1031A0005B6A581C796948621344E2B21A707B6901
:1031B0005B68002B09D0BB68002B06D07B695B687D
:1031C000B8687A69926811469847BB6979229A6013
:1031D00000E000BF2437BD4690BD00BF80B500AF02
:1031E0000020FFF7E3FD00BF80BD80B500AF0120E8
:1031F000FFF7DCFD00BF80BD80B500AF0220FFF708
:10320000D5FD00BF80BD80B500AF0320FFF7CEFD28
:1032100000BF80BD80B582B000AF084B7B607B688B
:103220005B6A3B603B68002B04D03A6879680020F9
:1032300000F0F6F900BF0837BD4680BD000001412F
:1032400080B582B000AF084B7B607B685B6A3B60F7
:103250003B68002B04D03A687968012000F0E0F95F
:1032600000BF0837BD4680BD0001014180B582B076
:1032700000AF084B7B607B685B6A3B603B68002B60
:1032800004D03A687968022000F0CAF900BF083714
:10329000BD4680BD0002014180B582B000AF084B41
:1032A0007B607B685B6A3B603B68002B04D03A68BC
:1032B0007968032000F0B4F900BF0837BD4680BD2F
:1032C0000003014180B582B000AF084B7B607B6892
:1032D0005B6A3B603B68002B04D03A687968042045
:1032E00000F09EF900BF0837BD4680BD00040141D3
:1032F00080B582B000AF084B7B607B685B6A3B6047
:103300003B68002B04D03A687968052000F088F902
:1033100000BF0837BD4680BD0005014180B582B0C1
:1033200000AF084B7B607B685B6A3B603B68002BAF
:1033300004D03A687968062000F072F900BF0837B7
:10334000BD4680BD0006014180B483B000AF786007
:103350007B6803F5820303F580731B0218460C3764
:10336000BD465DF8047B704780B483B000AF7860E1
:103370007B6803F5820303F580731B0218460C3744
:10338000BD465DF8047B704780B485B000AF03464E
:10339000FB710023FB73FB79062B02D9FA23FB7325
:1033A00000E000BF97F90F3018461437BD465DF8AE
:1033B000047B704780B582B000AF0346FB71FB7998
:1033C0001846FFF7E1FF034618460837BD4680BDA3
:1033D00080B586B000AF0346FB710B46BB71134648
:1033E0007B710023FB75FB791846FFF7E3FF03466B
:1033F000FB7597F91730002B02D06FF0010359E0ED
:10340000FB791846FFF7A0FF38612C4BFB60FB6887
:103410001B6823F0FF0343F01502FB681A60FB688A
:103420001B6823F0FF0343F05102FB681A60BB796D
:10343000072B1AD83B691B68BA7992000F2101FA51
:1034400002F2D24313407A79042A05D87A7942F0FD
:103450000802D2B2114600E00F21BA79920001FAB7
:1034600002F21A433B691A601BE03B695B68BA7958
:10347000083A92000F2101FA02F2D24313407A79FE
:10348000042A05D87A7942F00802D2B2114600E047
:103490000F21BA79083A920001FA02F21A433B6905
:1034A0005A60064BBB60BB681B6823F0FF02BB6819
:1034B0001A60002318461837BD4680BDF00F014141
:1034C00080B586B000AF0346FB710B46BB71134657
:1034D0007B710023FB75FB791846FFF76BFF0346F2
:1034E000FB7597F91730002B02D06FF0010356E0FF
:1034F000FB791846FFF728FF38612B4BFB60FB6810
:103500001B6823F0FF0343F01502FB681A60FB6899
:103510001B6823F0FF0343F05102FB681A607B79BC
:10352000032B32DC022B1CDA002B02D0012B0CD037
:103530002BE0BB795B00032202FA03F31A463B69D6
:103540009B681A433B699A6020E0BB795B000322C9
:1035500002FA03F31A463B699B681A433B699A6077
:1035600014E03B699B68BA795200032101FA02F228
:10357000D24313407A7902F00101BA79520001FA7C
:1035800002F21A433B699A6000E000BF064BBB6041
:10359000BB681B6823F0FF02BB681A600023184653
:1035A0001837BD4680BD00BFF00F014180B584B023
:1035B00000AF0346FB710B46BB7113467B710023C2
:1035C000FB73FB791846FFF7F5FE0346FB7397F98B
:1035D0000F30002B02D06FF001031DE0FB7918467D
:1035E000FFF7C2FEB8607B79002B0AD1BB790122BC
:1035F00002FA03F31A46BB689B6B1A43BB689A63D3
:1036000009E0BB79012202FA03F31A46BB68DB6BBF
:103610001A43BB68DA63002318461037BD4680BDE5
:1036200080B588B000AF0346B9607A60FB73FB7B5E
:103630001B01174A1344FB61164BBB61BB691B6836
:1036400023F0FF0343F01502BB691A60BB691B68D6
:1036500023F0FF0343F05102BB691A60BB687A682C
:103660005A620C4B7B617B691B6823F0FF027B690C
:103670001A60FB695B68002B06D0FB695B68FA691E
:10368000926811467868984700BF2037BD4680BDD4
:103690001C040020F00F014180B500AFFFF7BAFD18
:1036A00000BF80BD80B500AFFFF7CAFD00BF80BD81
:1036B00080B500AFFFF7DAFD00BF80BD80B500AF79
:1036C000FFF7EAFD00BF80BD80B500AFFFF7FAFD50
:1036D00000BF80BD80B500AFFFF70AFE00BF80BD10
:1036E00080B500AFFFF71AFE00BF80BD80B483B085
:1036F00000AF4FF082437B607B681B6823F00F03B1
:1037000043F005027B681A6000BF0C37BD465DF8C8
:10371000047B704780B485B000AF78604FF082437F
:10372000BB600023FB737B68184A934202D80023D6
:10373000FB731DE07B68164A934202D80123FB739A
:1037400016E07B68134A934202D80223FB730FE012
:103750007B68114A934202D80323FB7308E07B681D
:103760000E4A934202D80423FB7301E00523FB7346
:10377000BB681B6823F00F02FB7B1A43BB681A600F
:1037800000BF1437BD465DF8047B7047408AF701DF
:103790008014EF0300E1F505406BED0780F5E409C7
:1037A00080B586B000AF0346FB710B46BB71134674
:1037B0007B710023FB754FF08043FB6000233B616E
:1037C0000023FB72FB79042B50D801A252F823F09E
:1037D000E5370000053800002538000045380000B6
:1037E00067380000FB681B6C43F00202FB681A6438
:1037F0007B79334A42FA03F31A46324B1A600623A6
:103800003B6136E0FB681B6C43F00802FB681A64FE
:103810007B792D4A42FA03F31A462A4B1A60022397
:103820003B6126E0FB681B6C43F02002FB681A64D6
:103830007B79264A42FA03F31A46224B1A60002388
:103840003B6116E0FB681B6C43F08002FB681A6466
:103850007B794FF4004242FA03F31A46194B1A607F
:1038600001233B6105E007233B6102E0FA23FB757E
:1038700000BFFB685B6C23F070627B791B061A4308
:10388000FB685A64FB685B6C1B0CDBB203F007033C
:10389000FB720C4B1A68FB7A22FA03F30C4A136092
:1038A000FFF724FFFB685B6C23F007023B691A43B8
:1038B000FB685A6497F9173018461837BD4680BD23
:1038C00000093D00500000200024F40020A1070062
:1038D0005400002080B485B000AF03460A46FB7157
:1038E0001346BB710023FB734FF08043BB60002382
:1038F000BB73BB790F2B02D96FF0050341E0BB68A6
:103900001B6D23F00F02BB7903F00F031A43BB6852
:103910001A65FB79072B25D801A252F823F000BFC6
:103920005939000053390000473900004D39000073
:103930005F39000065390000653900004139000039
:103940000423BB7311E00023BB730EE00123BB73A0
:103950000BE00523BB7308E00623BB7305E00723D8
:10396000BB7302E0FA23FB7300BFBB681B6D23F03F
:10397000E002BB7B5B01DBB21A43BB681A6597F9B7
:103980000F3018461437BD465DF8047B704700BF02
:1039900080B487B000AF03463A60FB710B46BB7141
:1039A0000023FB754FF08043FB600023BB600023C6
:1039B0003B61FB685B6C23F44072BB791B021A43CA
:1039C000FB685A64BB79032B16D801A252F823F086
:1039D000E1390000E7390000ED390000F33900005B
:1039E00001233B610BE002233B6108E004233B61C0
:1039F00005E008233B6102E0FA23FB7500BF97F95D
:103A00001730002B02D097F917302BE00123BB6051
:103A1000FB79002B11D0012B1FD1FB681B6C23F00D
:103A20000202BB685B001A43FB681A64104A3B69D8
:103A3000B2FBF3F23B681A6012E0FB681B6C23F0E8
:103A40000802BB68DB001A43FB681A64094A3B6939
:103A5000B2FBF3F23B681A6002E0FA23FB7500BF89
:103A600097F9173018461C37BD465DF8047B704740
:103A700000093D000024F40080B487B000AF7860F6
:103A8000114B1B68114AA2FB03239B0C7B617B69D2
:103A9000002B01D101237B617B687A6902FB03F370
:103AA0003B610023FB6003E000BFFB680133FB6068
:103AB000FB683A699A42F7D800BF00BF1C37BD4681
:103AC0005DF8047B704700BF5000002083DE1B437D
:103AD0002DE9B04F84B000AF78600023BB734FF086
:103AE0008043BB600023FB737B681B78042B04D1ED
:103AF000404B1B68404A13600EE07B681B78002B2C
:103B000001D10123FB73BB685B6C23F48052FB7B08
:103B10001B031A43BB685A647B6818787B68597822
:103B20007B689B781A46FFF73BFE0346BB7397F909
:103B30000E30002B02D097F90E3055E02E4B1B684B
:103B400000229846914642464B464FF000004FF007
:103B50000001590141EAD261500102460B46B2EB25
:103B6000080463EB09054FF000024FF00003AB00BF
:103B700043EA9473A20014461D4614EB080A45EB71
:103B8000090B4FF000024FF000034FEACB0343EA6A
:103B90005A734FEACA0292469B4650465946174A04
:103BA0004FF0000305F034F802460B46144BA3FB1C
:103BB00002239B08134A13600F4B1B68124AA2FB97
:103BC0000323DB0C114A1360104B1B68002B02D13E
:103BD0000E4B01221A60C820FCF766FE064B1B68DC
:103BE0001846FFF797FD002318461037BD46BDE87D
:103BF000B08F00BF8C0400205000002040420F0016
:103C0000ABAAAAAA58000020819F5E165C00002083
:103C100080B487B000AF03460A46FB711346BB7100
:103C20000023FB754FF080433B610023FB60BB79B1
:103C3000FB60FB79032B33D801A252F823F000BFBD
:103C4000513C0000653C0000793C00008D3C0000C8
:103C50003B691B6C23F00202FB685B001A433B6963
:103C60001A6420E03B691B6C23F00802FB68DB0050
:103C70001A433B691A6416E03B691B6C23F020026F
:103C8000FB685B011A433B691A640CE03B691B6CDF
:103C900023F08002FB68DB011A433B691A6402E0EF
:103CA000FA23FB7500BF97F9173018461C37BD463D
:103CB0005DF8047B704700BF80B588B000AF034655
:103CC0003960FB710023FB774FF080433B61002399
:103CD000BB610023BB600023FB600023FB75FB7905
:103CE00083F00103DBB2002B06D03B691B6E23F48B
:103CF00080023B691A6684E03B691B6E43F48002D4
:103D00003B691A660220FFF7B7FE3B681B78012B60
:103D100001D10123FB753B695B6C23F48052FB7D71
:103D20001B031A433B695A643B6818783B685B780D
:103D300007F108021946FFF72BFE0346FB7797F9B8
:103D40001F30002B02D097F91F305CE03B689B7856
:103D500003F00F0343F480023B68DB781B021A4335
:103D60003B685B791B0403F47023134343F4001393
:103D7000BB613B689B799B0603F04062BB691A43B9
:103D80003B68DB791B0603F040731343BB613B695F
:103D9000BA691A664FF4FA70FFF76EFE1C4B1B6887
:103DA0004FF4FA7202FB03F3BB6108E0BB69002B1E
:103DB00002D1FC23FB7706E0BB69013BBB613B6999
:103DC0001B6E002BF2DA97F91F30002B02D097F907
:103DD0001F3018E03B685B7901333A689278013212
:103DE00002FB03F3FB60BA68FB68B2FBF3F3BB6151
:103DF0003B68DB7801331A46BB6902FB03F3054AD3
:103E0000136097F91F3018462037BD4680BD00BFAC
:103E10005C0000208C04002080B584B000AF034615
:103E2000FB710B46BB7113467B714FF08043FB6007
:103E30000023FB72BA79FB7911461846FFF74AFD59
:103E40000346FB7297F90B30002B02D097F90B3029
:103E500009E0FB681B6D23F010027B791B011A43FC
:103E6000FB681A65002318461037BD4680BD000068
:103E700080B485B000AF0346FB714FF08043FB6018
:103E8000FB79042B02D96FF0050310E0FB685B6C33
:103E900023F4E022FB791B041A43FB685A64074BA6
:103EA0001A68FB7922FA03F3054A136000231846C7
:103EB0001437BD465DF8047B704700BF50000020FA
:103EC0005400002080B586B000AF0346FB714FF070
:103ED00080433B610023FB6000237B61FB79022B65
:103EE00024D0022B31DC002B02D0012B0FD02CE090
:103EF0003B699B6C03F02003002B28D001237B61DE
:103F00003B699B6C43F020023B699A641FE03B696C
:103F10009B6C03F00203002B1BD002237B613B69E7
:103F20009B6C43F002023B699A6412E03B699B6C14
:103F300003F40073002B0ED004237B613B699B6C60
:103F400043F400723B699A6405E000BF04E000BFDF
:103F500002E000BF00E000BFFA7913465B001344A3
:103F60009B00094A1344FB60FB681B68002B06D0CA
:103F7000FB681B68FA68526811467869984700BF69
:103F80001837BD4680BD00BF9004002080B500AF4B
:103F90000020FFF797FF00BF80BD80B500AF012074
:103FA000FFF790FF00BF80BD80B500AF0220FFF794
:103FB00089FF00BF80BD000080B483B000AF03461E
:103FC000FB7197F90730002B0BDBFB7903F01F0225
:103FD000074997F907305B09012000FA02F241F81E
:103FE000232000BF0C37BD465DF8047B704700BF3F
:103FF00000E100E080B483B000AF0346FB7197F9A5
:104000000730002B12DBFB7903F01F020A4997F9F6
:1040100007305B09012000FA02F2203341F8232027
:10402000BFF34F8F00BFBFF36F8F00BF00BF0C37D0
:10403000BD465DF8047B704700E100E080B483B0CA
:1040400000AF0346FB7197F90730002B0CDBFB79BF
:1040500003F01F02074997F907305B09012000FAB6
:1040600002F2603341F8232000BF0C37BD465DF8F3
:10407000047B704700E100E080B483B000AF0346EA
:104080003960FB7197F90730002B0ADB3B68DAB225
:104090000C4997F907301201D2B20B4483F8002380
:1040A0000AE03B68DAB20849FB7903F00F03043BEE
:1040B0001201D2B20B441A7600BF0C37BD465DF830
:1040C000047B704700E100E000ED00E080B485B0C3
:1040D00000AF03463960FB714FF08043FB60002363
:1040E000FB72FB79092B02D96FF0010323E0FB6817
:1040F0009A6AFB791033012101FA03F3DB431A407A
:10410000FB791033396801FA03F31A43FB689A62AA
:10411000FB681A6BFB791033012101FA03F3DB43CF
:104120001A40FB791033396801FA03F31A43FB682C
:104130001A6397F90B3018461437BD465DF8047BB7
:10414000704780B483B000AF78607B6803F1807300
:10415000C0339B0118460C37BD465DF8047B7047A1
:1041600080B485B000AF0346FB71EF23FB73FB798E
:10417000092B35D801A252F823F000BFA541000059
:10418000AB410000B1410000B7410000BD4100005B
:10419000C3410000C9410000CF410000D5410000EB
:1041A000DB4100000F23FB731BE01023FB7318E0BF
:1041B0001123FB7315E01223FB7312E01323FB732F
:1041C0000FE01423FB730CE01523FB7309E01623A7
:1041D000FB7306E01723FB7303E01823FB7300E077
:1041E00000BF97F90F3018461437BD465DF8047BC1
:1041F000704700BF80B483B000AF0346FB71FB790A
:10420000032B13D801A252F823F000BF1D42000077
:10421000294200002542000021420000002306E060
:10422000012304E0022302E0032300E004231846F4
:104230000C37BD465DF8047B704700BF80B483B087
:1042400000AF0346FB71FB7918460C37BD465DF89D
:10425000047B704780B485B000AF78600023BB60FA
:104260000023FB607B689B699B0803F00103BB6034
:10427000BB68002B03D0FB6843F00203FB607B6844
:104280009B695B0803F00103BB60BB68002B03D094
:10429000FB6843F00403FB607B689B6903F0010348
:1042A000BB60BB68002B03D0FB6843F00803FB60D6
:1042B000FB6818461437BD465DF8047B7047000064
:1042C00080B487B000AF396011461A460346FB71CF
:1042D0000B46BB7113467B710023FB754FF0804387
:1042E0003B610023FB603B681B6823F0700343F0D5
:1042F00040023B681A60BB79052B21D801A252F815
:1043000023F000BF1D430000234300003B43000097
:10431000294300002F430000354300000023BB75F4
:1043200011E00123BB750EE00523BB750BE00623EE
:10433000BB7508E00723BB7505E00423BB7502E0ED
:10434000FA23FB7500BF97F91730002B02D097F9BD
:1043500017303BE097F91730002B36D13B6990338B
:10436000FB60FB6808331B68FA79042A02D96FF0F6
:10437000E06201E06FF4E0621340B97DFA79042A4B
:1043800001D9182200E0082201FA02F21146FA6867
:1043900008320B431360FB6808331B68FA79042A60
:1043A00002D96FF47F0201E06FF0FF0213407979C8
:1043B000FA79042A01D9102200E0002201FA02F25F
:1043C0001146FA6808320B431360002318461C3765
:1043D000BD465DF8047B704780B483B000AF0346F0
:1043E0003960FB711346BB713B681B6843F0700278
:1043F0003B681A60002318460C37BD465DF8047B05
:104400007047000080B485B000AF03463960FB718F
:104410001346BB710023FB730023BB73BB79032BD3
:1044200016D801A252F823F0394400003F4400009E
:10443000454400004B4400000023BB730BE0012304
:10444000BB7308E00223BB7305E00323BB7302E0E8
:10445000FA23FB7300BF3B681B6823F07002BB7B31
:104460001B011A433B681A6097F90F30184614373E
:10447000BD465DF8047B704780B584B000AF7860BE
:1044800039600023FB600FE00B4AFB681B011344FB
:104490000E331B78002B04D0FB68DBB2184600F00B
:1044A00079FAFB680133FB60FB68092BECDD00BF88
:1044B00000BF1037BD4680BDB404002080B582B077
:1044C00000AF0346FB71FB791846FFF73AFE03463F
:1044D00018460837BD4680BD80B582B000AF0346A0
:1044E0000A46FB711346BB71BA79FB79114618462F
:1044F000FFF7ECFD034618460837BD4680BD0000B7
:1045000080B584B000AF0346FB710023FB73FB79D9
:10451000092B02D96FF0010322E0FB790121184633
:10452000FFF7DAFF0346FB7397F90F30002B02D039
:1045300097F90F3014E0FB791846FFF7BFFFB8601A
:10454000FB791B01084A1344102200211846FBF78F
:10455000CDFFBB6800221A60BB6800225A600023AE
:1045600018461037BD4680BDB404002080B584B025
:1045700000AF03463960FB710023FB73FB79092B05
:1045800002D96FF001033AE03B689B88B3F5806F76
:1045900002D36FF0050332E0FB791846FFF78EFF78
:1045A000B8603B681B78022B17D0022B1DDC002B58
:1045B00002D0012B09D018E03B685A783B689B7801
:1045C000F879B968FFF77CFE12E03B685A78FB790E
:1045D000B9681846FFF700FF0AE03B685A78FB7994
:1045E000B9681846FFF70EFF02E0FA23FB7300BF1D
:1045F0003B689B881A46BB689A6097F90F3018464B
:104600001037BD4680BD000080B586B000AF0346C0
:104610003960FB710023FB75FB79092B02D96FF020
:104620000103B3E03B681B78032B02D96FF005034D
:10463000ACE0FB791846FFF741FF3861FB791B01BD
:10464000544A1344FB603B681B781846FFF7D2FDC1
:104650000346FB723B691B6823F00302FB7A1A4393
:104660003B691A603B685B781846FFF7E7FD034635
:10467000BB723B691B6823F08002BB7ADB011A43E3
:104680003B691A603B68DB78002B49D03B681B789C
:10469000032B42D801A252F823F000BFAD46000020
:1046A000ED460000AD460000C74600003B69DB69EF
:1046B00043F004023B69DA613B69DB6943F00202C3
:1046C0003B69DA612CE03B69DB6943F004023B693A
:1046D000DA613B69DB6943F002023B69DA613B69FD
:1046E0001B6843F400623B691A6019E03B69DB69AF
:1046F00043F004023B69DA613B69DB6943F0020283
:104700003B69DA613B691B6823F00C023B689B78CC
:104710009B001A433B691A6002E0FA23FB7500BF55
:1047200097F91730002B2FD13B681A78FB681A7362
:104730003B681B79002B05D03B69DB6943F0010224
:104740003B69DA613B681B78032B0DD13B68DB8842
:104750001A463B69DA603B681B891A463B691A6155
:10476000FB6806225A7309E03B68DB881A463B69FE
:10477000DA603B681B891A463B691A613B695B68D2
:1047800043F002023B695A6097F917301846183710
:10479000BD4680BDB404002080B588B000AFBA60CB
:1047A0007B600346FB730B46BB730023FB77FB7BED
:1047B000092B02D96FF001036CE0FB7B1B01374A28
:1047C0001344BB61FB7B1846FFF7CAFC0346FB752D
:1047D000BB7B012B02D0022B25D03BE0BB699B7B2E
:1047E000002B09D097F91700002300220021FDF7C4
:1047F00069FBBB6900229A73BB69BA685A60BB69DE
:104800007A689A6097F917301846FFF717FC97F9FE
:104810001730B96A1846FFF72FFC97F9173018467A
:10482000FFF7CAFB31E097F9170001237A681C49AA
:10483000FDF748FB0346FB7797F91F30002B05D1A6
:10484000BB69BA685A60BB697A689A60BB69012221
:104850009A731AE097F91700002300220021FDF750
:1048600031FBBB6900229A7397F917301846FFF79E
:10487000E5FB97F917301846FFF7BCFBBB69002230
:104880009A60BB6900225A6000BFBB69BA7B1A708C
:1048900097F91F3018462037BD4680BDB40400206C
:1048A0007944000080B584B000AF0346FB71FB790A
:1048B000092B02D96FF001030BE0FB791846FFF7D3
:1048C000FDFDF860FB685B6843F00102FB685A601D
:1048D000002318461037BD4680BD80B584B000AFB8
:1048E0000346FB71FB79092B02D96FF001030BE042
:1048F000FB791846FFF7E2FDF860FB685B6823F080
:104900000102FB685A60002318461037BD4680BD7F
:1049100080B584B000AF03460A46FB711346BB71F5
:10492000FB79092B02D96FF001030EE0FB791846E1
:10493000FFF7C4FDF860FB681B6823F40062BB79D5
:10494000DB021A43FB681A60002318461037BD4685
:1049500080BD80B584B000AF03460A46FB711346A4
:10496000BB71FB79092B02D96FF001030EE0FB79D3
:104970001846FFF7A3FDF860FB681B6823F480521C
:10498000BB791B031A43FB681A60002318461037D3
:10499000BD4680BD80B586B000AF0346FB710023E5
:1049A0007B610023FB74FB791846FFF787FDF860F5
:1049B000FB791B01504A1344BB60F868FFF74AFCBF
:1049C0000346FB74FB7C03F00203002B04D1FB7C49
:1049D00003F00103002B27D0BB681B7B032B20D8DF
:1049E00001A252F823F000BFF9490000194A000063
:1049F000F9490000034A00007B6943F001037B6131
:104A000012E0BB685B7B03F00203002B0BD07B69D9
:104A100043F002037B6106E07B6943F008037B619E
:104A200002E000BF00E000BFFB7C03F00403002BAA
:104A300026D0BB681B7B032B1FD801A252F823F0A2
:104A4000514A0000714A0000514A00005B4A0000D0
:104A50007B6943F001037B6112E0BB685B7B03F081
:104A60000203002B0BD07B6943F004037B6106E05B
:104A70007B6943F010037B6102E000BF00E000BFF0
:104A80007B69002B17D0FB689B6943F00402FB682D
:104A90009A61FB689B6943F00202FB689A61FB68BC
:104AA0009B6943F00402FB689A61FB689B6943F0D1
:104AB0000202FB689A61FB7C03F00803002B09D01B
:104AC0007B6943F020037B61FB689B6943F0010233
:104AD000FB689A61BB685B68002B09D07B69002B7F
:104AE00006D0BB685B68BA689268114678699847D7
:104AF00000BF1837BD4680BDB404002080B500AFAC
:104B00000020FFF747FF00BF80BD80B500AF012048
:104B1000FFF740FF00BF80BD80B500AF0220FFF768
:104B200039FF00BF80BD80B500AF0320FFF732FF23
:104B300000BF80BD80B500AF0420FFF72BFF00BF92
:104B400080BD80B500AF0520FFF724FF00BF80BD0A
:104B500080B500AF0620FFF71DFF00BF80BD80B508
:104B600000AF0720FFF716FF00BF80BD80B500AF84
:104B70000820FFF70FFF00BF80BD80B500AF092000
:104B8000FFF708FF00BF80BD80B483B000AF0346CD
:104B9000FB7197F90730002B0BDBFB7903F01F0249
:104BA000074997F907305B09012000FA02F241F842
:104BB000232000BF0C37BD465DF8047B704700BF63
:104BC00000E100E080B483B000AF0346FB7197F9C9
:104BD0000730002B12DBFB7903F01F020A4997F91B
:104BE00007305B09012000FA02F2203341F823204C
:104BF000BFF34F8F00BFBFF36F8F00BF00BF0C37F5
:104C0000BD465DF8047B704700E100E080B483B0EE
:104C100000AF0346FB7197F90730002B0CDBFB79E3
:104C200003F01F02074997F907305B09012000FADA
:104C300002F2603341F8232000BF0C37BD465DF817
:104C4000047B704700E100E080B483B000AF03460E
:104C50003960FB7197F90730002B0ADB3B68DAB249
:104C60000C4997F907301201D2B20B4483F80023A4
:104C70000AE03B68DAB20849FB7903F00F03043B12
:104C80001201D2B20B441A7600BF0C37BD465DF854
:104C9000047B704700E100E000ED00E080B485B0E7
:104CA00000AF03463960FB714FF08043FB60FB7936
:104CB0000C2B02D96FF001035EE0FB79072B17D9AB
:104CC000FB68D3F82821FB7903F00703083301219F
:104CD00001FA03F3DB431A40FB7903F007030833BF
:104CE000396801FA03F31A43FB68C3F8282110E07E
:104CF000FB68DA6AFB790833012101FA03F3DB432D
:104D00001A40FB790833396801FA03F31A43FB6848
:104D1000DA62FB79072B17D9FB68D3F83021FB79CE
:104D200003F007030833012101FA03F3DB431A40C0
:104D3000FB7903F007030833396801FA03F31A43D8
:104D4000FB68C3F8302110E0FB685A6BFB7908332D
:104D5000012101FA03F3DB431A40FB790833396878
:104D600001FA03F31A43FB685A633B68002B02D134
:104D7000044B00221A60002318461437BD465DF824
:104D8000047B70475405002080B483B000AF786086
:104D90007B6803F5800380331B0218460C37BD4641
:104DA0005DF8047B7047000080B485B000AF034617
:104DB000FB71EF23FB73FB790C2B44D801A252F853
:104DC00023F000BFF94D0000FF4D0000054E00002C
:104DD0000B4E0000114E0000174E00001D4E00004B
:104DE000234E0000294E00002F4E0000354E0000DB
:104DF0003B4E0000414E00003F23FB7324E0402364
:104E0000FB7321E04123FB731EE04223FB731BE095
:104E10004323FB7318E04423FB7315E06C23FB73FF
:104E200012E06D23FB730FE06E23FB730CE06F2326
:104E3000FB7309E07023FB7306E07123FB7303E04F
:104E40007223FB7300E000BF97F90F301846143748
:104E5000BD465DF8047B704780B485B000AF034663
:104E6000FB710B46BB7113467B710023FB734FF044
:104E70008043BB60FB790C2B02D96FF0010364E027
:104E8000BB79052B3FD801A252F823F0A54E0000B4
:104E9000B54E0000C74E0000D74E0000E74E0000A0
:104EA000F74E00007B792C4A92FBF3F31A462B4B0A
:104EB0001A602BE07B794FF4004292FBF3F31A4621
:104EC000264B1A6022E0264B1A687B79B2FBF3F37B
:104ED000224A13601AE07B79224A92FBF3F31A46C6
:104EE0001E4B1A6012E07B791F4A92FBF3F31A46BD
:104EF0001A4B1A600AE01A4B1A687B79B2FBF3F37B
:104F0000164A136002E0FA23FB7300BFBB68D3F8B4
:104F1000A83023F0E062BB79002B02D1BB791B06DD
:104F200002E0BB7902331B061A43BB68C3F8A82012
:104F3000BB68D3F8A83023F47F027B791B041A43A3
:104F4000BB68C3F8A82097F90F3018461437BD4640
:104F50005DF8047B704700BF20A1070054050020C6
:104F6000500000200024F40000093D0080B400AF90
:104F7000034B1B681846BD465DF8047B704700BFB5
:104F80005405002080B584B000AF786039600023FC
:104F9000FB6011E00C4AFB682C2101FB03F3134476
:104FA00028331B78002B04D0FB68DBB2184600F0D6
:104FB00069FBFB680133FB60FB680C2BEADD00BF7B
:104FC00000BF1037BD4680BD5805002080B582B0B7
:104FD00000AF0346FB71FB791846FFF7D5FE034689
:104FE00018460837BD4680BD80B582B000AF034685
:104FF0000A46FB711346BB71BA79FB791146184614
:10500000FFF74CFE034618460837BD4680BD00003A
:1050100080B586B000AF0346FB710023FB75FB79BA
:105020000C2B02D96FF001033FE0FB7901211846F8
:10503000FFF7DAFF0346FB7597F91730002B02D014
:1050400097F9173031E0FB791846FFF7BFFF386159
:10505000FB792C2202FB03F3164A1344FB6003E0A6
:105060003B691B68DBB2BB603B695B6903F0010312
:10507000002BF5D100BF3B695B6903F02003002BD7
:10508000F9D03B6900225A603B690022DA603B6933
:1050900000221A613B695B693B699B682C220021F5
:1050A000F868FBF723FA97F9173018461837BD460A
:1050B00080BD00BF5805002080B582B000AF034618
:1050C0003960FB71FB790C2B02D96FF0010308E00A
:1050D0003B6859783B689A78FB791846FFF7BCFE25
:1050E000034618460837BD4680BD80B58AB000AF7C
:1050F00003463960FB71002387F82730FB790C2BBE
:1051000002D96FF0010380E0FB791846FFF75EFFDC
:1051100038623B681B79032B0DD83B6ADB6823F0B0
:1051200003033A6812791A433B6ADA603B685B7999
:10513000042B18D802E06FF0050366E03B685B794A
:10514000042B13D03B6ADB6843F008023B6ADA6049
:105150003B6ADB6823F010023B685B791B011A4352
:105160003B6ADA6002E06FF005034EE03B689B7932
:10517000012B0ED83B6ADB6823F004023B689B7965
:105180009B001A433B6ADA603B68DB79002B06D050
:1051900002E06FF0050338E0012387F827303B6A0F
:1051A0005B6823F0040297F827309B001A433B6AA0
:1051B0005A60FFF7DBFEF8613B681B681B01BB61AF
:1051C000FA69BB69B2FBF3F37B617B69BA6902FBE5
:1051D00003F3FA69D31A3B613B691A02BB69B2FB5C
:1051E000F3F3FB603B6A1B6A1B0C1B047A6992B2E7
:1051F0001A433B6A1A623B6A5B6A23F0FF02FB6850
:10520000DBB21A433B6A5A62002318462837BD4670
:1052100080BD000080B588B000AFBA607B600346F7
:10522000FB730B46BB730023FB77FB7B0C2B02D974
:105230006FF0010375E0FB7B2C2202FB03F33B4A7A
:105240001344BB61FB7B1846FFF7AEFD0346FB75BD
:10525000BB7B012B05D0002B42DD033B012B3FD84C
:1052600026E0BB6993F82830002B0AD097F9170085
:10527000002300220021FCF725FEBB69002283F8F1
:105280002820BB69BA685A60BB697A689A6097F946
:1052900017301846FFF7BAFC97F91730B96A184665
:1052A000FFF7D2FC97F917301846FFF76DFC33E093
:1052B00097F9170001237A681D49FCF703FE03469E
:1052C000FB7797F91F30002B05D1BB69BA685A608C
:1052D000BB697A689A60BB69012283F828201BE0C9
:1052E00097F91700002300220021FCF7EBFDBB69B2
:1052F000002283F8282097F917301846FFF786FC1C
:1053000097F917301846FFF75DFCBB6900225A6019
:10531000BB6900229A6000BFBB69BA7B1A7097F91B
:105320001F3018462037BD4680BD00BF58050020FD
:10533000854F000090B589B000AFB9607A601A4619
:105340000346FB731346BB730023FB77FB7B0C2BDD
:1053500002D96FF0010365E0FB7B1846FFF736FECC
:10536000B861FB7B2C2202FB03F3304A13447B61C0
:105370007B691B7B012B02D16FF0020352E07B693A
:1053800001221A737B69BA681A617B697A689A612B
:105390007B6900221A627B691B78002B1AD0BB7BC9
:1053A000002B21D016E0BB691B6823F0FF027B694C
:1053B00019697B691B6A5C1C786904620B441B7861
:1053C0001A43BB691A6000BFBB695B6903F0200325
:1053D000002BF9D07B699A697B691B6A9A42E2D8F3
:1053E0007B6900221A731BE0BB695B6903F0200331
:1053F000002B0FD0BB691B6823F0FF027B69196982
:105400007B691B6A5C1C786904620B441B781A4335
:10541000BB691A60BB695B6843F00202BB695A60F2
:1054200097F91F3018462437BD4690BD5805002017
:1054300090B58DB000AFB9607A601A460346FB7331
:105440001346BB73002387F82B30FB7B0C2B02D950
:105450006FF001039EE0FB7B1846FFF7B7FD786213
:10546000FB7B2C2202FB03F34C4A13443B623B6A56
:105470005B7B022B02D16FF002038BE03B6A0222BE
:105480005A733B6ABA685A613B6A7A68DA613B6A66
:1054900000225A623B6A1B78002B02D0BB7B002B98
:1054A0006CD0FB7B1846FFF77FFC0346FB763B6A1C
:1054B0001B78002B4FD097F91B301846FFF782FB63
:1054C00049E000237B6142F21073FB6202E0FB6A59
:1054D000013BFB627B6A5B6903F00103002B02D195
:1054E000FB6A002BF3D1FB6A002B06D13B6A00223A
:1054F0005A73FC2387F82B3033E07B6A5B69DB0847
:1055000003F001037A6913437B617B6A5B699B0843
:1055100003F001037A6913437B617B6A5B695B0873
:1055200003F001037A6913437B617B69002B06D08A
:105530003B6A00225A73F72387F82B3011E07B6A0D
:105540001C683B6A5A693B6A5B6A581C396A486244
:105550001344E2B21A703B6ADA693B6A5B6A9A42A8
:10556000AFD83B6A00225A733B6A1B78002B0FD0DE
:1055700097F91B301846FFF707FB09E07B6A1B68A9
:10558000DBB2FB617B6A5B6843F001027B6A5A60B5
:1055900097F92B3018463437BD4690BD580500208A
:1055A00080B584B000AF0346FB71FB790C2B02D9A8
:1055B0006FF001031EE0FB791846FFF707FDF86066
:1055C000FB792C2202FB03F30C4A1344BB60FB68FB
:1055D000DB6843F04002FB68DA60FB68DB6823F0BD
:1055E0004002FB68DA60BB6800221A73BB680022C5
:1055F0005A73002318461037BD4680BD5805002059
:1056000080B584B000AF03463960FB71FB790C2B89
:1056100002D96FF0010312E0FB791846FFF7D6FCC0
:10562000F860FB685B6903F48073002B03D03B6870
:1056300000221A7002E03B6801221A70002318460B
:105640001037BD4680BD80B584B000AF03463960D9
:10565000FB71FB790C2B02D96FF001030DE0FB7994
:105660001846FFF7B3FCF860FB685B69DBB203F038
:105670007F03DAB23B681A70002318461037BD4624
:1056800080BD000090B589B000AF0346FB710023D8
:10569000FB60FB790C2B00F2AE80FB791846FFF71C
:1056A00095FCF861FB792C2202FB03F3544A134466
:1056B000BB61FB699B683B613B6903F00603062BFA
:1056C00033D1FB6843F00403FB60FB695B6903F0C3
:1056D0001003002B03D0FB6843F00803FB60FB6959
:1056E0005B6903F00803002B03D0FB6843F0100351
:1056F000FB60FB695B6903F00403002B03D0FB68CC
:1057000043F02003FB60FB695B6903F00203002B9D
:1057100003D0FB6843F04003FB60FB691B68DBB20E
:105720007B61FB6900225A6056E03B6903F0040389
:10573000002B1FD0FB691C68BB695A69BB695B6A97
:10574000581CB96948621344E2B21A70BB69DA693D
:10575000BB695B6A9A423CD1FB695B6823F001023A
:10576000FB695A60BB6900225A73FB6843F002036D
:10577000FB602EE03B6903F00203002B04D13B6980
:1057800003F01003002B26D0BB699A69BB691B6A22
:105790009A4210D0FB691B6823F0FF02BB691969AC
:1057A000BB691B6A5C1CB86904620B441B781A4312
:1057B000FB691A6010E0BB6900221A73FB695B6821
:1057C00023F00202FB695A60FB6843F00103FB60AF
:1057D00002E000BF00E000BFBB695B68002B0BD09C
:1057E000FB68002B08D0BB695B68F868BA699268EF
:1057F0001146984700E000BF2437BD4690BD00BF6A
:105800005805002080B500AF0020FFF73BFF00BF28
:1058100080BD80B500AF0120FFF734FF00BF80BD21
:1058200080B500AF0220FFF72DFF00BF80BD80B51F
:1058300000AF0320FFF726FF00BF80BD80B500AF9B
:105840000420FFF71FFF00BF80BD80B500AF05201B
:10585000FFF718FF00BF80BD80B500AF0620FFF73F
:1058600011FF00BF80BD80B500AF0720FFF70AFF22
:1058700000BF80BD80B500AF0820FFF703FF00BF69
:1058800080BD80B500AF0920FFF7FCFE00BF80BDE2
:1058900080B500AF0A20FFF7F5FE00BF80BD80B5E0
:1058A00000AF0B20FFF7EEFE00BF80BD80B500AF5C
:1058B0000C20FFF7E7FE00BF80BD000080B582B07E
:1058C00000AF0346FB71094B1B7883F00103DBB289
:1058D000002B06D10020F91D01230122FFF72AFD2C
:1058E00000E000BF0837BD4680BD00BF9407002020
:1058F00080B586B002AF384B1B78002B01D0012356
:1059000066E003220F210220FDF762FD0346FB73D0
:1059100097F90F30002B01D0002359E003220E210C
:105920000220FDF755FD0346FB7397F90F30002B5E
:1059300001D000234CE000231846FFF769FB034623
:10594000FB7397F90F30002B01D0002340E00123B7
:105950003B7003237B700123BB7000223B4619463A
:105960001046FFF7A9FB0346FB7397F90F30002B96
:1059700001D000232CE04FF4E1337B6003233B7222
:1059800004237B720023BB720023FB7200223B1DA9
:1059900019461046FFF7A9FB0346FB7397F90F3032
:1059A000002B01D0002313E00020002300930023EC
:1059B00000220021FFF72EFC0346FB7397F90F30FE
:1059C000002B01D0002303E0034B01221A700123B6
:1059D00018461037BD4680BD9407002080B582B0C0
:1059E00000AF78607B68002B14D00C4B1B7883F0E1
:1059F0000103DBB2002B0DD107E07B681B78184652
:105A0000FFF75CFF7B6801337B607B681B78002BB2
:105A1000F3D100E000BF0837BD4680BD94070020E9
:105A200080B582B000AF78607868FFF7D7FF034891
:105A3000FFF7D4FF00BF0837BD4680BD689B00005C
:105A40000FB480B5ACB000AFD7F8B830002B37D06A
:105A5000204B1B7883F00103DBB2002B30D107F120
:105A6000BC037B6007F108007B68D7F8B820A02151
:105A700003F0EAFAC7F8AC00D7F8AC30002B21DD10
:105A8000D7F8AC309F2B02DD9F23C7F8AC30002342
:105A9000C7F8A8300DE007F10802D7F8A830134482
:105AA0001B781846FFF70AFFD7F8A8300133C7F86C
:105AB000A830D7F8A820D7F8AC309A42EBDB02E048
:105AC00000BF00E000BFB037BD46BDE8804004B075
:105AD000704700BF9407002080B582B000AF00235C
